:020000040800F2
:1000000000100020093900082D0900082F090008F8
:1000100000000000000000000000000000000000E0
:10002000000000000000000000000000310900088E
:100030000000000000000000330900083509000836
:1000400059390008000000005939000859390008E2
:10005000593900083D0900084709000859390008C6
:1000600000000000590900085939000859390008F2
:1000700059390008593900085939000800000000B2
:10008000593900080000000000000000593900083C
:1000900000000000690900087909000859390008C2
:1000A000000000005939000800000000593900081C
:1000B0000000000000000000000000000000000040
:1000C00010B5064C2378002B07D1054B002B02D02E
:1000D000044800E000BF0123237010BD0800002089
:1000E00000000000C8390008044B10B5002B03D0F5
:1000F0000349044800E000BF10BDC04600000000F6
:100100000C000020C839000802B4714649084900B3
:10011000095C49008E4402BC7047C04603B4714676
:10012000490840004900095A49008E4403BC704701
:10013000002243088B4274D303098B425FD3030A26
:100140008B4244D3030B8B4228D3030C8B420DD339
:10015000FF22090212BA030C8B4202D312120902C7
:1001600065D0030B8B4219D300E0090AC30B8B4205
:1001700001D3CB03C01A5241830B8B4201D38B03B3
:10018000C01A5241430B8B4201D34B03C01A524158
:10019000030B8B4201D30B03C01A5241C30A8B429B
:1001A00001D3CB02C01A5241830A8B4201D38B0286
:1001B000C01A5241430A8B4201D34B02C01A52412A
:1001C000030A8B4201D30B02C01A5241CDD2C3099C
:1001D0008B4201D3CB01C01A524183098B4201D318
:1001E0008B01C01A524143098B4201D34B01C01A03
:1001F000524103098B4201D30B01C01A5241C3087B
:100200008B4201D3CB00C01A524183088B4201D3E9
:100210008B00C01A524143088B4201D34B00C01AD5
:100220005241411A00D20146524110467047FFE741
:1002300001B5002000F0F0F802BDC0460029F7D05B
:1002400076E7704703460B437FD4002243088B4276
:1002500074D303098B425FD3030A8B4244D3030B4D
:100260008B4228D3030C8B420DD3FF22090212BA12
:10027000030C8B4202D31212090265D0030B8B428E
:1002800019D300E0090AC30B8B4201D3CB03C01A78
:100290005241830B8B4201D38B03C01A5241430B53
:1002A0008B4201D34B03C01A5241030B8B4201D343
:1002B0000B03C01A5241C30A8B4201D3CB02C01AAE
:1002C0005241830A8B4201D38B02C01A5241430A26
:1002D0008B4201D34B02C01A5241030A8B4201D315
:1002E0000B02C01A5241CDD2C3098B4201D3CB01BC
:1002F000C01A524183098B4201D38B01C01A52416B
:1003000043098B4201D34B01C01A524103098B426E
:1003100001D30B01C01A5241C3088B4201D3CB0059
:10032000C01A524183088B4201D38B00C01A52413C
:1003300043088B4201D34B00C01A5241411A00D2EC
:1003400001465241104670475DE0CA0F00D0494255
:10035000031000D34042534000229C4603098B42C5
:100360002DD3030A8B4212D3FC22890112BA030A4D
:100370008B420CD3890192118B4208D389019211CF
:100380008B4204D389013AD0921100E08909C30954
:100390008B4201D3CB01C01A524183098B4201D356
:1003A0008B01C01A524143098B4201D34B01C01A41
:1003B000524103098B4201D30B01C01A5241C308B9
:1003C0008B4201D3CB00C01A524183088B4201D328
:1003D0008B00C01A5241D9D243088B4201D34B0043
:1003E000C01A5241411A00D20146634652415B1085
:1003F000104601D34042002B00D549427047634666
:100400005B1000D3404201B5002000F005F802BDAA
:100410000029F8D016E770477047C04610B5102481
:1004200094B02C22002109A803F097FA22000021A1
:10043000684603F092FA2200002104A803F08DFA26
:1004400012230893113B0B930D9380230C940E946D
:100450001B030E3C08A81094129302F081FA019439
:10046000002407232100684600930294039402F0BD
:1004700087FC202304A80493079402F01FFD14B006
:1004800010BD10B502F0B2FDFFF7C8FF00F01AF87A
:1004900000F018F900F02CF900F088F800F0E8F905
:1004A00000F08AF900F0C6F901F09EF801F0E6F8D4
:1004B000FCE710B501F0FCF910BD10B501F0C4F96E
:1004C00010BD7047F0B589B01422002103A803F0D5
:1004D00044FA8021304BC9035A6990260A435A6175
:1004E0005A692E4F0A4080210092009A5A69890267
:1004F0000A435A615A69F6050A4080210192019A1D
:100500005A69C9020A435A615B6938000B40029379
:1005100001220321029B02F03FFE01223000402114
:1005200002F03AFE0323002401253800039303A9B7
:100530000E3304930594069502F076FD0C23039385
:10054000174B300003A90493059502F06DFD40237D
:10055000300003A9039304950594069402F064FD0A
:10056000022303930F4B03A90F480493059502F050
:100570005BFD22002100052002F0DCFE052002F0D8
:1005800001FF22002100062002F0D4FE062002F026
:10059000F9FE09B0F0BDC04600100240001400484A
:1005A00000003110000021100004004830B585B073
:1005B0000C22002101A803F0D0F904221A4C1B4B95
:1005C0006261BC32A2628022002523600123D20036
:1005D00020006560A560E5602361A561E561236297
:1005E0006562E2622363636301F058FAA84201D0B6
:1005F000FFF767FF80235B0102930723200001A917
:100600000195039301F084FB002801D0FFF759FF07
:100610000123200001A9019301F07AFB002801D0F9
:10062000FFF74FFF05B030BD6800002000240140F7
:1006300070B5050088B01422002103A803F08DF9DD
:100640001C4B2A689A4232D1802680211A4BB60070
:100650009A69890232439A619A69902032400192E4
:10066000019A5A69C0050A435A615B690B400293BB
:10067000029B032303A90393049302F0D5FC802279
:100680000E4C0F4BE2608022120123606261002356
:10069000202220006360A3602661A261E36102F072
:1006A0008DFD002801D0FFF70CFFEC63656208B0F8
:1006B00070BDC0460024014000100240240000200C
:1006C0000800024007B50121084B09205A690A4376
:1006D0005A6100225B690B4001931100019B02F0FB
:1006E00029FE092002F04EFE07BDC0460010024060
:1006F00010B5134B134C01222360134B2000636091
:100700000023E260A36023616361A361E36123626C
:1007100001F00EFD002801D0FFF7D3FE00212000DC
:1007200001F0CCFE002801D0FFF7CBFE0021200015
:1007300001F0EAFE002801D0FFF7C3FE10BDC0465D
:1007400000540040B40000200B02000010B504006B
:1007500088B01422002103A803F0FFF8144B22688C
:100760009A4222D18022134C920263699020134353
:100770006361636903A913400193019BC023DB00FC
:10078000039312230493113B059302330693C00590
:100790000133079302F048FC8022E369920313437C
:1007A000E361E36913400293029B08B010BDC046A9
:1007B000005400400010024010B586B01022002105
:1007C00002A803F0CAF808220021684603F0C5F821
:1007D000154C164B164A23600F236360002320003C
:1007E000A360E2602361A36101F0C4FF002801D08F
:1007F000FFF767FE802320005B0102A9029301F04E
:10080000E1FF002801D0FFF75CFE202300930023C6
:1008100069462000019302F07FF8002801D0FFF71D
:1008200050FE06B010BDC04680010020000400400C
:100830000F2700000A480B4B10B503600A4B0B4A08
:10084000436000238360036143618033C26083613E
:1008500001F090FF002801D0FFF733FE10BDC04625
:1008600040010020004401403F0600000F27000027
:100870000A480B4B10B503600F2343600023094A5D
:100880008360036143618033C260836101F072FF62
:10089000002801D0FFF715FE10BDC0460001002062
:1008A00000480140E70300001FB503681B4A93425C
:1008B0000AD102211A4BDA690A43DA61DB690B407B
:1008C0000193019B05B000BD164A934212D18021CD
:1008D000134B89029A6915200A439A6100229B6989
:1008E0000B4002931100029B02F024FD152002F040
:1008F00049FDE7E70C4A9342E4D18021084BC90245
:100900009A6916200A439A6100229B690B4003935F
:100910001100039B02F00EFD1620E8E700040040E2
:100920000010024000440140004801407047FEE7CB
:100930007047704710B502F069FB10BD10B502207A
:1009400002F030FC10BD10B5042002F02BFC082092
:1009500002F028FC10BD000010B5024802F0A0FC17
:1009600010BDC0462400002010B5024801F020FE52
:1009700010BDC0464001002010B5024801F018FE2D
:1009800010BDC0460001002001210A4B82B09A69C7
:100990000A439A619A690A4080210092009ADA69B2
:1009A00049050A43DA61DB690B400193019B02B000
:1009B0007047C0460010024000487047C001002048
:1009C0001FB50D226946002002F090FE6A4692781B
:1009D000124B511E8A411A706A46D2785A706A4682
:1009E00012799A706A465279DA706A4692791A7167
:1009F0006A46D279511E8A415A716A46127A9A71B0
:100A00006A46527ADA716A46927A1A726A46D27ADB
:100A10005A726A46127B9A7205B000BDC00100206E
:100A20001FB56A4669460F4B002013800E4B1A789B
:100A30008A705A78CA709A780A71DA784A711A7983
:100A40008A715A79CA719A790A72DA794A721A7A6B
:100A50008A725A7ACA729B7A0D220B7302F02EFEAA
:100A600005B000BDFAFAFFFFC001002000220221FC
:100A7000084B1A705A709A70D9705A71083108323E
:100A800019719A710A311A725A72073AD9719A72A7
:100A90007047C046C00100200E4B00205A78172A2C
:100AA00016D89A783B2A13D89A79172A10D8DA7967
:100AB000172A0DD81A7A082A0AD85A7A013A072A28
:100AC00006D807229B7A013BDBB29A424041C0B272
:100AD0007047C046C00100207FB50D22002002A94A
:100AE00002F004FE6B461B7AFA2B10D06B465B7A41
:100AF000FA2B0CD080239B020093094B684601938C
:100B000002F028FDFFF7B2FFFFF78AFF05E0FFF7CD
:100B100057FFFFF7C1FF0028F4D007B000BDC04663
:100B20000101010F10B502F05AFEFFF745FF007AF0
:100B3000002800D1083002F045FE10BD642310B536
:100B4000C2780C005A4341788918FF22002C00D04B
:100B5000FD3A0123032002F047FE10BD002210B52C
:100B600020210400100002F0BDFE0122202110000F
:100B700002F0B8FE20780A21FFF7DAFA30300022BE
:100B8000C1B2022002F0AEFE20780A21FFF756FB28
:100B9000303100220320C9B202F0A4FE10BD10B50E
:100BA000041C632800D963240022E4B21000202131
:100BB00002F098FE0A212000FFF7BAFA3030002236
:100BC000C1B2012002F08EFE20000A21FFF736FBA1
:100BD000303100220220C9B202F084FE00224321FB
:100BE000032002F07FFE10BDF0B585B00400039134
:100BF0000292FFF7E1FE0190E01E0C2800D908E107
:100C0000FFF78CFA0D002F00580064007A008E0068
:100C1000A200B500C200CC00D600E100F4002026FE
:100C2000029B3700002B0DD1039B0A21DC782000AA
:100C3000FFF77EFA30300A21C6B22000FFF7FEFA35
:100C40003031CFB2039B5C780A212000FFF770FAA5
:100C500030300A21C5B22000FFF7F0FA3031CCB2B3
:100C600012E0039B0A21DC782000FFF761FA3030A4
:100C70000A21C6B22000FFF7E1FA2024029B30319E
:100C80002500CFB2002BDDD000223100100002F091
:100C900029FE01223900100002F024FE2900002262
:100CA000022002F01FFE00222100032002F01AFEA3
:100CB00005B0F0BD029B002B00D0AFE0019B6E247D
:100CC0001B78002B00D146246F25A9E02026029B2B
:100CD0003700002B0DD1019B0A215C782000FFF723
:100CE00027FA30300A21C6B22000FFF7A7FA3031C8
:100CF000CFB2019B9C78A7E7019B0A215C7820007A
:100D0000FFF716FA30300A21C6B22000FFF796FA34
:100D10002024029B30312500CFB2002BB4D1E8E76C
:100D2000029B002B7FD1019B0A21DC782000FFF77A
:100D3000FFF930300A21C5B22000FFF77FFA3031C9
:100D4000CCB2532754269FE7029B002B6ED1019B08
:100D50000A211C792000FFF7EBF930300A21C5B2D7
:100D60002000FFF76BFA3031CCB24827EAE7019B4D
:100D70001C7A002C5DD0029B002B5DD130253034D5
:100D8000E4B2722762267FE7029B002B57D1302501
:100D9000019B5C7A3034E4B23127F3E7029B002BED
:100DA00050D13025019B9C7A3034E4B23227E9E7F8
:100DB000029B002B49D1019B6E245B79002B00D153
:100DC00046246F2543E0029B002B43D1019B0A215F
:100DD0009C792000FFF7ACF930300A21C5B2200021
:100DE000FFF72CFA3031CCB2532731E0029B002BB5
:100DF00033D1019B0A21DC792000FFF799F93030CB
:100E00000A21C5B22000FFF719FA3031CCB26527AC
:100E10001EE0002425002700260035E720242500B9
:100E20004C27412630E7202425008AE7202425008E
:100E30009BE755244125A4E720242500A1E7202491
:100E40002500A9E720242500B0E7202425006F27EE
:100E5000722619E720242500C6E720242500D6E7BE
:100E600010B502F0AFFC10BD014B18787047C046BA
:100E7000D4010020014B18707047C046D4010020F7
:100E8000014B18707047C046D3010020014B187801
:100E90007047C046D301002010B5034B0100082263
:100EA000180002F087FD10BDCB010020002119229F
:100EB00010B5044B04481970044B1A70073A02F03D
:100EC0004CFD10BDD5010020D601002000000020FF
:100ED00030B5124C124B227881B2072A11D8551C1A
:100EE00052002570995200230E4A1188814205D282
:100EF0000133DBB202327E2BF7D100230A4A137092
:100F000030BD0822002019825988013AD2B21980D6
:100F100040180233002AF7D1C008E4E7D5010020C9
:100F2000D6010020E039000800000020034B1B78A8
:100F3000181C632B00D96320C0B27047000000204A
:100F40000023054A137053709370D3701371034AD2
:100F50001360034A13707047F0010020EC01002079
:100F6000E8010020012210B5034B04489A705A7022
:100F700001F0FAFA10BDC046F00100200001002087
:100F80000022064B10B506489A7001F0F7FA90203F
:100F900001224021C00502F0FFF810BDF001002041
:100FA00000010020902070B51A4C40212368C00534
:100FB0000133236002F0EAF82368051E0DD1322BBD
:100FC0000AD9902001224021C00502F0E5F8124A1A
:100FD000256013780133137070BD0F4D2A78032AF2
:100FE0000AD8322BF8D9902000224021C00502F007
:100FF000D3F800232360EFE7FA2252009342EBD9A3
:10100000902000224021C00502F0C6F80023236092
:101010002B70E1E7EC010020E801002070B5114CD5
:1010200005002178E378C278002912D06178002980
:101030000FD19A4207D0A378002B01D0FFF7A0FF71
:10104000002363700DE0227943789A42F3D1FFF7D1
:1010500089FFE278EB789A42EDD122796B789A4257
:10106000E9D170BDF0010020014B18787047C046EF
:10107000F0010020014B98787047C046F001002035
:1010800010B5054A0023D478844203D113795B1A42
:101090005A425341180010BDF001002010B5094A12
:1010A00003005478917801208C4206D800229C429B
:1010B00001D899425241104010BD02009C42FAD919
:1010C0000022F6E7F8010020034B044A1A60FF22D1
:1010D0009A8000229A607047F801002000081400EE
:1010E000014B58717047C046F801002070B52F4C75
:1010F00005002378002B2CD0437806783B2B29D190
:10110000362E4ED9C07818210130FFF781F9CEB2C2
:101110003000FFF7C3FF00281BD0FFF7A5FF002812
:1011200011D122792B789A4213D001F077FFA06079
:10113000902000224021C00502F02EF80123E37028
:101140002B78237105E000213000FFF799FF00287C
:10115000E7D070BD002B24D1002E24D1C078FFF73A
:101160009DFF0028F5D0FFF77FFF002812D12379DB
:10117000002BEED001F052FFA06090200022402111
:10118000C00502F009F80123E37000232371EB7816
:101190006371DEE73100E878FFF772FF0028E6D0E0
:1011A000D7E7002ED5D0FF23CBE7C046F8010020BB
:1011B000014B18787047C046F801002037B5FFF79B
:1011C00059FF002802D0FFF7DBFE37BDFFF74CFECA
:1011D0000500FFF7F1FB04000F2DF6D82800FEF7FD
:1011E00093FF081208213445505E6C7D8EA3B4C570
:1011F000D0DE0120FFF73EFE684602F05BF968464C
:10120000FFF7ACFCE1E70020FFF734FE684602F090
:1012100051F900216846FFF791FC01F0FFFE674B92
:101220005860D2E7654AD37E0133DBB2172B00D971
:101230000023D376022300209376FFF721FE0022BD
:1012400003205F49FFF7D0FCBFE75C4A537E0133C0
:10125000DBB23B2B00D90023537602230020937688
:10126000FFF70EFE002204205549EBE70123227808
:10127000002053402370FFF703FE00220520504951
:10128000E0E763780133DBB2172B00D9002300209D
:101290006370FFF7F5FD002206204949D2E7A378E5
:1012A0000133DBB23B2B00D900230020A370FFF7F2
:1012B000E7FD002207204249C4E7E3780133DBB2AF
:1012C000E3700F2B03D923795A425341E370002076
:1012D000FFF7D6FD002208203949B3E7237901330F
:1012E000DBB223711E2B03D9E3785A425341237199
:1012F0000020FFF7C5FD002209203149A2E7237A2B
:101300000133DBB2082B00D900232372181C002BF9
:1013100000D10120C0B2FFF7A3FD0020FFF7B0FD10
:1013200000220A2026498DE7637A0133DBB2082BBD
:1013300000D9012300206372FFF7A2FD607AFFF756
:101340008FFD00220B201E497CE7A37A0133DBB21C
:10135000082B00D901230020A372FFF791FDA07A8A
:10136000FFF77EFD00220C2015496BE7012362790F
:10137000002053406371FFF783FD00220D201049C8
:1013800060E7A3790133DBB2172B00D900230020DB
:10139000A371FFF775FD00220E20094952E7E3799A
:1013A0000133DBB2172B00D900230020E371FFF7D4
:1013B00067FD00220F20024944E7C04604020020D6
:1013C0001C02002073B5FFF755FE002802D0FFF77E
:1013D000D7FD73BDFFF748FD6C460500200002F005
:1013E00069F80F2DF5D82800FEF78EFE081E082894
:1013F000344758626C7C868E9DACD4DE0320FFF7A8
:1014000039FD0120FFF73CFD754B06CC06C3744C3B
:101410002000FFF741FD012221000320FFF7E4FB3C
:10142000092002F01FF9D4E700252000257002F002
:1014300091F829002000FFF781FBCAE70420FFF79D
:1014400019FD0120FFF71CFD012204206449FFF76C
:10145000CBFBBEE702220024614D624B28009A7646
:101460001C7602F077F80520FFF704FD2000FFF757
:1014700007FD220029000520E9E7FFF7F5FD082315
:10148000002800D0023B1800FFF7F4FC0120FFF712
:10149000F7FCFFF7E9FC01225149D8E70720FFF7E5
:1014A000E9FC0120FFF7ECFC012207204C49CEE7C4
:1014B0000820FFF7DFFC0020FFF7E2FC00220820F5
:1014C0004749C4E7FFF778FAC078434258410930EA
:1014D000FFF7D0FC0020FFF7D3FCFFF7C5FC00228C
:1014E0003F49B4E70A20FFF7C5FC0020FFF7C8FC1E
:1014F00000220A203A49AAE7FFF75EFA037A0D2094
:10150000002BE5D10238E3E70C20FFF7B3FC002005
:10151000FFF7B6FCFFF750FA807AFFF7A1FC002234
:101520000C202F4993E70D20FFF7A4FC0020FFF7C4
:10153000A7FCFFF741FA407AFFF792FC00220D204A
:10154000274984E70020FFF79BFCFFF731FE244E7C
:10155000041E18D10223234D28763000AB7601F00B
:10156000F9FFE87EFFF7BCFDFFF75AFA2000FFF70E
:1015700081FC21003000FFF7E1FA02F04BF801F0A6
:101580004DFD686025E70E20FFF774FC0022310056
:101590000E205CE70F20FFF76DFC0020FFF770FCCA
:1015A00000220F200E4952E7022300250C4E0D4C5D
:1015B0003000A376257601F0CDFFE07EFFF790FDA9
:1015C000FFF72EFA2800FFF755FC29003000FFF73F
:1015D000B5FA02F01FF801F021FD6060F9E6C0469F
:1015E0001C0200200402002073B5FFF775FAFFF714
:1015F00099FAFFF75BFCFFF7A3FCFFF765FD80237B
:10160000194C5B00238023000026184D2C33280042
:101610001E70666026626662A66200F0EFFB28001C
:101620006D460222124900F0DBFA124800F090FFEA
:10163000114800F099FF31000822280002F08DF9CE
:10164000280001F037FF23002A00183303CA03C320
:10165000E878FFF745FD01F0DDFF01F0DFFC012335
:101660006060237073BDC046040200206800002043
:101670000C0200208001002040010020F8B5FFF797
:101680009BF90600FFF7F0FB040001F0C7FC050022
:10169000F07800284FD0002C39D1694F7B68AB42DD
:1016A00006D8FA22317992004A43EB1A9A4203D8BB
:1016B0000220FFF7DFFB7D6090200821C00501F0CC
:1016C00065FD002850D1033CE4B20C2C4CD801F04D
:1016D000A5FCC8225A4C0500636A9200C31A9342C3
:1016E00042D9A36AC31AFA2B3ED9FFF7BDFB060005
:1016F000FFF762F90300F01E0C2834D8FEF704FD52
:101700002235334553617233333333839100022CD6
:10171000D2D13379002BCFD0494E7368AB4205D874
:10172000FA2292004243EB1A9A42C5D80020FFF7F2
:10173000A1FB7560C0E7022CBED1FFF79BFB404BBD
:101740005D60B9E7E37E0133DBB2172B00D90023DC
:10175000E37602230020A376FFF792FB002203200A
:101760003849FFF741FAA562F8BD637E0133DBB269
:101770003B2B00D90023637602230020A376FFF7DA
:101780007FFB002204202F49EBE75A780132D2B2C6
:10179000172A00D9002200205A70FFF771FB00229F
:1017A00006202849DDE79A780132D2B23B2A00D9D7
:1017B000002200209A70FFF763FB002207202149D6
:1017C000CFE7DA780132D2B2DA700F2A03D91A7968
:1017D00051424A41DA700020FFF752FB00220820F4
:1017E0001849BEE71A790132D2B21A711E2A03D9FA
:1017F000DA7851424A411A710020FFF741FB00227A
:1018000009201049ADE79A790132D2B2172A00D9DE
:10181000002200209A71FFF733FB00220E200949B5
:101820009FE7DA790132D2B2172A00D900220020CC
:10183000DA71FFF725FB00220F20024991E7C0462D
:10184000040200201C0200200368154A70B5934270
:1018500002D1FFF7A7FB70BD124A9342FBD1FFF7FD
:10186000ABF80400104DE868FFF732FB227A002A3B
:10187000F1D16978AB6800290AD0AF2109018B4208
:10188000E9D96A70607A0028E5D0FFF7E9FAE2E763
:10189000064A9342DFD801236B70A07AF3E7C04673
:1018A000004801400044014004020020FB08000001
:1018B000F7B50400FFF7D8FA0500FFF7E7FA0600CE
:1018C000022C32D14C4F3B78002B19D0022D22D85C
:1018D0004A4C1837200001F0EDFD200006C806C76D
:1018E000002D0ED13100FFF729F92000FFF796FBFC
:1018F0002000FFF7FBFB01207040C0B2FFF7C0FAE9
:10190000F7BD012D02D1FFF729F9EEE7FFF70EFB36
:10191000FFF745F9E9E7EB1EDBB20C2BEBD8020031
:1019200037492800FFF760F9E5E7042C3ED1902005
:101930002100C00501F02AFC2F4C002803D101F042
:101940006DFB2062DCE701F069FB236A834202D968
:10195000FFF738FDD4E7C01AC8239B00984222D96C
:10196000FFF788FB051E02D0FFF70AFBC8E7FFF769
:101970007BFA0338C0B20C28C2D8012805D802234C
:101980001F482576A37601F0E5FD0020FFF772FAE7
:10199000684601F08FFD00216846FFF7CFF801F09F
:1019A0003DFB6060ACE73228AAD9D1E7082CA7D16B
:1019B00090202100C00501F0E9FB0F4C051E06D167
:1019C00001F02CFBA56260622C34257098E701F0D1
:1019D00025FB636A834205D9FFF7F0FB00232C3413
:1019E00023708DE7C01A3228F8D923002C331B78D6
:1019F000002BF3D1F0E7C0460402002014020020BF
:101A00001C020020002373B5032101930368040026
:101A10009A680A40012A07D11968114201D00020B2
:101A200076BDDA681204FAD49968194A114209D0CD
:101A30001023626C134363640123A26C13430120DF
:101A4000A364EDE7012299680A439A60114B124999
:101A50001868FEF76DFB0190019B002B13D101F07C
:101A6000DDFA0126050023681B683342D7D101F057
:101A7000D5FA401B0228F6D91023626C1343636425
:101A8000A36C3343DBE7019B013B0193E4E7C046D2
:101A9000170000800400002040420F0070B5041EB3
:101AA00000D18FE0436C002B05D1020040328364EB
:101AB0001370FEF7BDFD636CDB0600D584E0226881
:101AC00093685B0700D57FE0616C424B1940063399
:101AD000FF330B430321636493680B40012B05D153
:101AE000116819420ED1D3681B040BD41821D36896
:101AF0008B43A1680B43D360136961689B009B080B
:101B00000B431361D3683449E0690B40D360A36988
:101B1000C0039B030343216AE06803434803034374
:101B2000206B40000343606B0138451EA841000351
:101B30000343206902384542684180000343606ADC
:101B4000012804D100292BD1802149020B43C22056
:101B5000A16AFF30814202D0E06A01430B4380203A
:101B6000D16840051943D160A16B814202D0481E63
:101B7000062807D8072550692940A84350615069B5
:101B800001435161D26815490A409A4210D10020A0
:101B90000323A064626C9A43023B1343636470BDE9
:101BA0002021656C29436164A16C0843A064CEE7E1
:101BB0001223626C9A43023B134363640123A26CB9
:101BC0001343A3640120EAE71023626C13436364A8
:101BD000F8E7C046FDFEFFFF1902FEFFE7FF3F8367
:101BE000F7B5036804009B680E00022001925B07B2
:101BF00030D4270040373B78012B2BD001233B709A
:101C0000E369012B27D1626C164B00251A40802313
:101C10005B0013436364A5643D70E06B124B216865
:101C20008362124BC362124B03631C230B604A682E
:101C30000C3B13434B600123CA681343CB60320053
:101C4000019B403101F0F0FA0423280022689168DA
:101C50000B439360FEBD2000FFF7D4FE0028D2D0D6
:101C6000F8E7C046FEF0FFFF791C0008EB1C0008F7
:101C7000F71C0008704700005022436A10B5596CE9
:101C800011422BD1596CB132FF320A43C0215A6440
:101C90001A680901D068084213D1196A002910D1C5
:101CA000116809070DD5916849070ED40C205168B9
:101CB00081435160596C0B4A11400432FF320A4390
:101CC0005A641800FFF7D6FF10BD2022596C0A4352
:101CD0005A640122996C0A439A64F2E7DB6B1B6B2E
:101CE0009847F1E7FEFEFFFF704710B5406AFFF727
:101CF000FBFF10BD70474023406A10B5426C134390
:101D000043640423826C13438364FFF7F3FF10BD25
:101D1000F7B5002204000192403422780300866B5C
:101D20000220012A2CD0013820701D68AA685207B1
:101D300054D40A684F681300BC462B4F9040103BA8
:101D4000BC453CD0AF6A3843A862072E0FD8002E9E
:101D500011D107206E6989680640B1420BD06E69C7
:101D6000014086436E616E693143696103E0802002
:101D700040058642EDD1012B03D9002000232370BA
:101D8000FEBD1300103B5D1EAB41802517495B4231
:101D90009B0D08689B052D045B1903430B60102AFB
:101DA000EBD1134B13491868FEF7C2F90A234343DA
:101DB0000193019B002BE0D0019B013BF8E7AA6A4D
:101DC0008243AA62012BD8D8581E8341074A0A4889
:101DD00011689B051B180B401360CEE72022596C3D
:101DE0000A435A64CAE7C0460110000008270140B0
:101DF0000400002040420F00FFFF7FFFF8B50600FF
:101E00004036337804000220012B41D00123032106
:101E1000337023689A680A40012A05D11968114273
:101E200037D1DA68120434D4616C1D4A114006328D
:101E3000FF320A4303216264DD68DA688A43DA60AC
:101E40008022996812060A439A6001F0E7F80700B9
:101E500023689A68002A0DDB0321DA680D401543D8
:101E6000DD6001230020626C8A4313436364002316
:101E700033700DE001F0D2F8C01B0228E8D912231C
:101E8000626C01209A43023B134363640023337066
:101E9000F8BD2023626C012013436364E7E7C0466A
:101EA000FDFEFFFF03689A69920701D500229A623E
:101EB00001229969114202D199690A439A617047D6
:101EC000006830B54468064D12042C40039D890516
:101ED0002B431A43890D0A432243426030BDC0465A
:101EE000009800FCF8B504000E0017001D002268E1
:101EF000936933409B1B59424B41BB4201D00020A8
:101F00000EE06B1CF4D0002D0BD1230020224133B6
:101F10001A702200002303204232403413702370D1
:101F2000F8BD01F07BF8069BC01AA842DFD9ECE7A8
:101F3000F7B5036801929A690400102310000E009F
:101F4000202718401A4216D1FEBD731C14D0002E53
:101F500005D001F063F8019BC01A86420BD2230022
:101F6000202241331A702200002342324034137081
:101F700003202370E8E72568AB693B42E5D01023D6
:101F80002000EB61EF61FFF78DFF6B68074A0120CE
:101F900013406B60042363642300220041331F70ED
:101FA00000234232403413702370CDE700E800FE76
:101FB000F8B504000D001600022723689B693B4218
:101FC00001D0002018E0320029002000FFF7B0FF08
:101FD000002818D16B1CF0D0002D0ED12022636C8C
:101FE000032013436364230041331A70220000234B
:101FF0004232403413702370F8BD01F00FF8801B9B
:10200000A842DAD9EAE70120F6E7F7B515001E0085
:10201000DAB280239B01009380230400099F5B04B4
:10202000FFF74EFF3A0020000899FFF7C1FF002894
:1020300005D0636C0120042B00D00320FEBD236873
:10204000012E0BD1EDB29D62002280212000089B61
:102050000097FFF747FF0028F0D0EEE72A0A9A62C0
:1020600020003A000899FFF7A3FF0028E1D1236878
:10207000E8E7F7B515001E00DAB280230400099FD7
:102080009B0100930023FFF71BFF3A0020000899F3
:10209000FFF78EFF002805D0636C0120042B00D0D1
:1020A0000320FEBD2368012E0BD1EDB29D620022FC
:1020B00040212000089B0097FFF714FF0028F0D074
:1020C000EEE72A0A9A6220003A000899FFF770FFAB
:1020D0000028E1D12368E8E7F8B504000D001600F8
:1020E000202723689B693B4201D0002016E0320084
:1020F00029002000FFF71CFF002816D1002D0ED16B
:102100002022636C032013436364230041331A705D
:10211000220000234232403413702370F8BD00F0D7
:102120007DFF801BA842DCD9EAE70120F6E700002A
:1021300070B504000120002C3FD0250041352B78DC
:10214000DAB2002B05D12300403320001A70FEF7CD
:10215000FDFA242301212B702368E0681A68A66821
:102160008A431A601A4962680A401A619A681949D2
:102170000A409A60012821D18022120232439A60DB
:102180005868154A02435A60DA6800200A40DA604B
:10219000616922690A43A16909020A43DA60216A76
:1021A000E2690A431A60012219680A431A6020236F
:1021B00060642B7020634234207070BD8422120250
:1021C00032439A600228DBD1802212015A60D7E79D
:1021D000FFFFFFF0FF7FFFFF00800002F0B5070068
:1021E00089B007930EAB069204CB02911B88049230
:1021F000059341373B7804000220202B36D1002A7A
:1022000033D0059B002B30D02300403303931B7841
:10221000012B2BD00126039B1E7000F0FFFE8021B6
:10222000320000900500192320000902FFF75AFE32
:10223000061E1FD121233B701F337B70049B6064FB
:102240006362059B60636385109B20000093069A80
:10225000079B029901950137FFF7D7FE00280BD0A5
:10226000636C042B04D1039B1E70012009B0F0BDE8
:10227000039B1E700320F9E7638DFF2B13D9FF2208
:10228000802322855B04009020000299FFF718FE4E
:102290002A0020001099FFF78BFE00280BD0636CFA
:1022A000042BE7D1E1E78023628D9B0492B2228563
:1022B000D2B20090E8E7636A5A1C62621B78226817
:1022C0009362638D228D013B013A9BB292B263858A
:1022D0002285002A16D1638D002B13D08021200087
:1022E000109B0095FFF7FEFD0028C3D1638DFF2BE7
:1022F00020D9FF22802322855B04009020000299D0
:10230000FFF7DEFD638D002BC2D12A00200010995B
:10231000FFF7E2FE0028C2D120212368094DD961D0
:102320005A682A405A60230040344133197038708B
:1023300020709BE78023628D9B0492B22285D2B2EB
:102340000090DBE700E800FEF0B5070089B00793D6
:102350000EAB069204CB02911B8804920593413781
:102360003B7804000220202B36D1002A33D0059B75
:10237000002B30D02300403303931B78012B2BD04C
:102380000126039B1E7000F049FE80213200009060
:102390000500192320000902FFF7A4FD061E1FD126
:1023A00022233B701E337B70049B60646362059B39
:1023B00060636385109B20000093069A079B029937
:1023C00001950137FFF755FE00280BD0636C042BF5
:1023D00004D1039B1E70012009B0F0BD039B1E7049
:1023E0000320F9E79023628D9B01FF2A46D9FF2243
:1023F0002285009380235B0420000299FFF760FD93
:10240000002204212000109B0095FFF76BFD00289F
:10241000E6D123685A6A636A591C61621A70228D78
:10242000638D013A013B92B29BB222856385002AFB
:1024300016D1638D002B13D080212000109B0095B6
:10244000FFF750FD0028CBD1638DFF2B1ED9FF2253
:10245000802322855B04009020000299FFF730FD65
:10246000638D002BCCD12A0020001099FFF734FE99
:10247000002813D0636C042BB2D1ACE7628D92B20A
:10248000228500938023D2B29B04B5E78023628D1E
:102490009B0492B22285D2B20090DDE7202123680E
:1024A000054DD9615A682A405A60230040344133AF
:1024B0001970387020708FE700E800FEF0B5040056
:1024C0004134227803000F000220D6B2202A18D10E
:1024D0001D0040352A78012A13D0242222701B685F
:1024E000233A196807489143196019680140002090
:1024F000196019683943196019680A431A6026700F
:102500002870F0BDFFEFFFFF0200F0B541321478F4
:102510000300E5B20220202C17D11C00403426789D
:10252000012E12D0223010701B6823381E68074F0E
:1025300086431E601E6809023E40314319601968D7
:1025400008431860002015702070F0BDFFF0FFFFF9
:102550000200022301213D321370006803680B431F
:102560000360002011707047012203680020D968C1
:102570001143D96019680A431A6070470121036842
:10258000DA688A43DA60186A054A104206D1186A86
:10259000044A104202D11A688A431A600020704728
:1025A00011110000440400007047704770477047E5
:1025B0000222036810B51969040011420ED0D968CF
:1025C00011420BD0053A1A61043202779B699B07CE
:1025D00000D179E0FFF7E9FF002323770422236885
:1025E0001969114210D0D96811420DD0093A1A6107
:1025F000073222779A69C0239B0020001A4269D0D3
:10260000FFF7D3FF002323770822236819691142BB
:102610000ED0D96811420BD0113A1A610D322277CF
:10262000DB6920009B075BD0FFF7BFFF0023237708
:10263000102223681969114210D0D96811420DD0B7
:10264000213A1A6119322277DA69C0239B002000EF
:102650001A424BD0FFF7A9FF0023237701222368FA
:102660001969114207D0D968114204D0033A2000F9
:102670001A61FDF722FF802223681969114208D0F0
:10268000D968114205D0023AFF3A20001A6100F0E1
:1026900066F9402223681969114207D0D9681142AE
:1026A00004D0813A20001A61FFF781FF20222368BD
:1026B0001969114207D0D968114204D0413A20006B
:1026C0001A6100F04BF910BDFFF76EFF2000FFF715
:1026D0006DFF81E7FFF768FF2000FFF767FF91E7D5
:1026E000FFF762FF2000FFF761FF9FE7FFF75CFF46
:1026F0002000FFF75BFFAFE710B5184C0368A0425E
:102700000AD0174A904207D0164A904209D1164A79
:102710001A40CB6813430AE0702293434A6813437C
:10272000F5E7124A9042F2D0114A9042EFD080224F
:1027300093434A69134303608B68C3620B688362E7
:10274000A04205D0094B984202D0094B984201D1D2
:102750000B6903630123436110BDC046002C014097
:102760000004004000200040FFFCFFFF0044014047
:102770000048014070B504000120002C14D0250051
:102780003D352B78DAB2002B05D123003C332000F5
:102790001A70FEF789F802232B702068211DFFF7BD
:1027A000ABFF012300202B7070BD000030B58468A2
:1027B000034D0A431B022C4013432343836030BD67
:1027C000FF00FFFFF8B5050002223C352C7803001E
:1027D0001000012C1BD01E0001383D3628703270CD
:1027E0001C684B4AA3681340A3600B68502B4ED063
:1027F00027D8202B00D180E00AD8002B00D172E02E
:10280000102B00D174E00123002033702870F8BD34
:10281000302B77D0402BF6D14A68CB68216A276AE3
:102820001B0187432762F027A069B84303430A20AE
:10283000A361702381430A432262A2689A43293B21
:1028400010E08022520193421CD00DD8602B33D06F
:10285000702BD8D1CB684A6820008968FFF7A6FFA3
:102860007722A368134310E0802292019342CAD1D9
:10287000CB684A6820008968FFF798FF8023A26828
:10288000DB01EFE70722A3689343A360BBE74A6835
:10289000CB68216A276A1B0187432762F027A0695A
:1028A000B84303430A20A361702381430A43226291
:1028B000A2689A43193BD5E710204B68CA68216A81
:1028C000144F81432162A069120338400243A020C3
:1028D000216A1B0181430B43A26123627023A2681A
:1028E0009A43093BBEE77023A2689A43693BB9E764
:1028F0007023A2689A43593BB4E77023A2689A43B5
:10290000493BAFE77023A2689A43393BAAE7C04628
:102910008800FFFFFF0FFFFF30B5040002223C34A8
:10292000257803001000012D17D0180070253D30C8
:1029300002701B685A68AA435A605A680D68496851
:102940002A4380255A609A68AA439A609A680A4383
:102950009A60012303700020207030BD70477047DB
:10296000F0B50368040085B0DB072FD423689B070C
:1029700000D581E023681B0700D5BCE023685B0716
:1029800000D5DFE02368DB061AD562690423B44D65
:10299000012A00D048E1696B02270B436B636B6B24
:1029A0001A436A6300F03AFB06006B6B3B4200D1AE
:1029B00033E1F8216A6BA3698A43DB0013436B633D
:1029C000216A002900D057E100202AE00C22A44D02
:1029D0006B681340042B06D06B681340082B0AD198
:1029E0006B68DB0307D52B689B03BFD56368002B9F
:1029F000BCD1012015E06368012B14D180232A6823
:102A00005B0213432B6000F009FB80270600BF0226
:102A10002B683B42AAD100F001FB801B6428F7D948
:102A2000032005B0F0BD002B16D12B688D4A8027FE
:102A300013402B602B688C4ABF0213402B6000F0C0
:102A4000EDFA06002B683B4200D18FE700F0E6FA72
:102A5000801B6428F6D9E3E7052B05D180232A687B
:102A6000DB0213432B60C9E72B687E4A13402B60BF
:102A70002B687D4A1340C5E70C22794D6B681342E1
:102A800006D06B681340082B10D16B68DB030DD4A4
:102A90002B689B0702D5E368012BAAD1F8212A688D
:102AA00023698A43DB0013432B6063E7E268012359
:102AB000002A0FD02A68022713432B6000F0AEFAD9
:102AC00006002B683B42E9D100F0A8FA801B0228DF
:102AD000F7D9A5E72A6802279A432A6000F09EFAF0
:102AE00006002B683B4200D144E700F097FA801BB8
:102AF0000228F6D994E7E2690123594D002A10D043
:102B00006A6A022713436B6200F088FA06006B6A58
:102B10003B4200D032E700F081FA801B0228F6D950
:102B20007EE76A6A02279A436A6200F077FA060033
:102B30006B6A3B4200D121E700F070FA801B02284B
:102B4000F6D96DE780220021454D5205EB690091D1
:102B5000134208D1EB691343EB61EB691340039314
:102B6000039B012300938027404E7F0033683B4244
:102B700015D0A368012B22D12A6A13432B6200F0DF
:102B80004DFA022706002B6A3B423FD0009B012BE7
:102B900000D0F7E6EB69364A1340EB61F2E63368A2
:102BA0003B43336000F03AFA019033683B42E0D196
:102BB00000F034FA019BC01A6428F6D930E70122EC
:102BC000002B14D12B6A022793432B622B6A03320A
:102BD00093432B6200F022FA06002B6A3B42D5D0C9
:102BE00000F01CFA234B801B9842F6D918E7052BFE
:102BF00005D1296A013B0B432B622B6ABDE72B6A87
:102C0000934304222B622B6A9343B7E700F006FA42
:102C1000184B801B9842B6D902E700F0FFF9801BE1
:102C2000022800D8C1E6FBE6053203D16A6B9A435D
:102C30006A63BEE66A6B0227134301226B636B6B08
:102C400093436B6300F0EAF906006B6B3B4200D1E3
:102C5000B6E600F0E3F9801B0228F6D9E0E6C046AC
:102C600000100240FFFFFEFFFFFFFBFF007000406F
:102C7000FFFFFFEF881300000C22254D6B68134007
:102C8000082B00D1B5E62B68224A13402B6002299D
:102C90002FD100F0C3F980270600BF042B683B4208
:102CA00021D10F22EB6A80269343E26AB6041343D4
:102CB000EB62616AA36A6A680B4317490A401343CF
:102CC0006B6080232A685B0413432B6000F0A6F935
:102CD00004002B68334200D076E600F09FF9001B19
:102CE0000228F6D99CE600F099F9801B0228D5D974
:102CF00096E600F093F980260400B6042B68334270
:102D000000D161E600F08AF9001B0228F6D987E6B7
:102D100000100240FFFFFFFEFFFFC2FF30B589B089
:102D200010221249684604AD00F044FE102228002B
:102D30000F4900F03FFE0C220E4843681A40082A53
:102D400011D10F216C469A0C0A40A45CC26ADB03C5
:102D500007D50A40A95C0848FDF7EAF9604309B0C5
:102D600030BD0648FAE70448F9E7C046DC3A0008F7
:102D7000ED3A00080010024000127A0000093D0000
:102D8000F7B50122444D04002B680F0013408B421D
:102D90001DD32268930724D4D2072AD401232A689A
:102DA0001A40BA4268D823683C4D5B0700D56BE0F7
:102DB000FFF7B4FF6B683A4A1B061B0FD35C394917
:102DC000D8400860002000F0FFF8002008E02B68E1
:102DD00093430B432B602B6813408B42D9D00120C7
:102DE000FEBDF0202D494B688343A06803434B6030
:102DF000D2E72A4E62683368012A1AD19B03EED5C6
:102E0000032173688B431343736000F007F9636811
:102E10000190012B15D10C2273681340042BBDD0F7
:102E200000F0FCF8019BC01A1F4B9842F3D9032015
:102E3000D6E7022A02D19B01E2D4D0E79B07DFD478
:102E4000CDE7022B12D00C2273681342A6D000F0FB
:102E5000E5F8019BC01A144B9842F4D9E7E700F05B
:102E6000DDF8019BC01A104B9842E0D80C22736821
:102E70001340082BF3D191E72A689A432A602A6805
:102E80001A4200D18FE7AAE76B68084A1340E2684C
:102E900013436B608CE7C0460020024000100240E4
:102EA000FE3A00080400002088130000FFF8FFFF2E
:102EB000014B18687047C04604000020F0B5036855
:102EC000050085B0DB032BD580220021384C52054C
:102ED000E3690091134208D1E3691343E361E369B5
:102EE00013400393039B012300938027314E7F00FF
:102EF00033683B4222D0216AC022080092006B68EE
:102F00002D4E104011422BD1236A6A68334013437F
:102F10002362009B012B03D1E369284A1340E3613C
:102F20002A68D30706D5032021490B6B8343A86881
:102F300003430B63920633D400200FE033683B4316
:102F4000336000F06BF8019033683B42D3D100F05E
:102F500065F8019BC01A6428F6D9032005B0F0BDBE
:102F600013408342D0D08022236A206A1900520283
:102F700002432262226A12483140024022622162E8
:102F8000DB07C1D500F04AF807000222236A13428A
:102F9000BAD100F043F80B4BC01B9842F5D9DCE7DF
:102FA0001021034A136B8B43E9680B431363C3E798
:102FB0000010024000700040FFFCFFFFFFFFFFEF2A
:102FC000FFFFFEFF8813000010B50400FFF770FF3D
:102FD000FA218900FDF7ACF800F0DEF901200022AB
:102FE0002100404200F0A6F9002010BD1023064A3F
:102FF00010B5116800200B431360FFF7E5FFFDF7E4
:10300000C3FC002010BDC04600200240024A1368E5
:10301000013313607047C04634020020014B18682A
:103020007047C046340200200023F0B587B00A681C
:103030001400DC4001D107B0F0BD012614009E4011
:1030400034400294324200D192E04A681500019265
:10305000102295430395022D0FD107240F251C4004
:10306000A400A540DA0892008218176AAF43BC4654
:103070000F69A74064462743176203225C00A24001
:10308000D543AC46032507689743019A2A40A240DE
:10309000039D3A43013D0260012D0DD862468568CB
:1030A0001540CA68A2402A438260019A4568120905
:1030B0009A40B5432A4342606246C56815408A6813
:1030C000A24080242A43C260019A640522424FD064
:1030D0000125284A90279469FF052C439461926941
:1030E0009C082A400592059A234AA400A4180F229E
:1030F00002351D40AD00AA40A66896430022B842A2
:103100000CD01E4F0132B84208D01D4F0132B842D8
:1031100004D01C4F0332B84200D1023AAA403243D5
:10312000A260194A029C1668029D019FE443354340
:10313000FF0301D43500254015605668029D019FAC
:103140003543BF0301D43500254055609668029D84
:10315000019F3543FF0201D4350025409560D568B5
:10316000029E019F2E43BF0201D425402E00D6604F
:1031700001335CE7001002400000014000040048F9
:1031800000080048000C00480004014000690840A5
:10319000431E9841C0B27047002A01D08161704738
:1031A0008162FCE7044B10B55A69104202D05861A5
:1031B000FDF77FF910BDC0460004014070B5040062
:1031C0000120002C28D00223A51CEB772068134B8C
:1031D0000268A1681A4063680B43E1680B432169E8
:1031E0000B4361690B43A1690B43E1690B43134333
:1031F00003600B4B1421C018FCF79AFF094B8000A9
:103200002064E36300200123A062E0622063606326
:10321000A063E418EB77E07770BDC0460FC0FFFFF6
:10322000F8FFFDBF00000240F7B5441C0193E57FA5
:10323000012D33D00125871CE577FD7F0026AC46A4
:103240006346EDB2012B28D10224FC770468866323
:103250002668076CAE43BD402660019BC66B756057
:1032600063604368102B0ED1A260E160C36A2268DC
:10327000002B0BD00E231343236001230020226870
:1032800013432360FEBDA160E260EFE70A2313430E
:103290000422236023689343EEE7E6770220F1E7F8
:1032A000F8B504273E00016CC26B8E4015680368B8
:1032B0001C6835420DD03C420BD01968890602D4F7
:1032C0001968B9431960C36A5660002B19D0984732
:1032D00017E002273E008E40354213D03C4211D009
:1032E0001968890606D40A241968A14319600121C6
:1032F000C319D97756600022431CDA77836A934258
:10330000E5D1F8BD082637008F403D42F9D0344260
:10331000F7D00E251C68AC431C6001231C008C40B8
:103320005460821C8363D3770022C318DA77036B5F
:10333000E5E7000010B5FF24032322000340DB0073
:103340009A4089012140D243994000280BDA0F238B
:103350000340083B09489B089B001B18D8690240A2
:103360000A43DA6110BD064B80088000C018C023F4
:103370009B00C45822400A43C250F3E700ED00E02E
:1033800000E100E01F2318401E3B8340014A136008
:103390007047C04600E100E08022431E5204012035
:1033A00093420DD2C021074A07485360036A0906B9
:1033B0001B021B0A0B43036200200723906013606B
:1033C0007047C04610E000E000ED00E00121114B25
:1033D00011481A680A431A605A6802405A601A680B
:1033E0000E4802401A601A680D4802401A605A6876
:1033F0000C4802400F205A60DA6A8243DA621A6B84
:10340000094802401A635A6B8A435A6300229A6041
:103410007047C046001002400CB8FF08FFFFF6FEE0
:10342000FFFFFBFFFFFFC0FFECFEFFFFF0B5012534
:10343000022387B01E4C05AF6D42029501930F2207
:103440005B19652120000097FEF77EFF802313267D
:103450007A785B426E4413433370029502352B0039
:1034600010226421200001950096FEF7B7FE042388
:103470003A7864211343337001235B4202930F2295
:103480002B00200001950096FEF7A8FE7C233A78D9
:103490005B421343337001235B4202930F222B00E4
:1034A0006421200001950096FEF798FE07B0F0BD5C
:1034B000B4000020012330B55B4287B004AD029315
:1034C000083304000022652101932148063B009542
:1034D000FEF73AFF06222B785242190951435B1836
:1034E00023706B78190951435B1802216370695688
:1034F000AB78002920DA7F210B4019094A430221C9
:103500009B18DBB2E3700623A170EA785B421109D5
:103510005943521822712A7911095943521862717C
:103520006A79110959435218A271AA7911094B43BA
:10353000D218E27107B030BD1F2205209906134052
:103540001A09524282439B18C90FDBB2DAE7C04620
:10355000B4000020F0B5050089B0FFF767FF2C78B4
:103560000A212000FCF7E4FD0627784306AE241864
:1035700034706C780A212000FCF7DAFD78432418B7
:103580007470AB780A210593EC782000022B37D1B8
:10359000FCF7CEFD78432018802464420443E4B253
:1035A000B4702F790A213800FCF7C2FD062460436D
:1035B0003F18F7706F790A213800FCF7B9FD6043B6
:1035C0003F183771AF790A213800FCF7B1FD60432D
:1035D0003F187771ED790A212800FCF7A9FD012336
:1035E00044435B422D19B5710293083301930022C5
:1035F00064210096063B0648FEF7F0FD09B0F0BDD9
:10360000FCF796FD4743059BE4195B011C43C6E7A5
:10361000B4000020F0B50127022687B0FFF706FFAF
:103620000F4D05AC7F42012310226521280002972F
:1036300001960094FEF788FE1022212321782800AD
:1036400091430B4323700F2361780B436370642114
:103650000123029701960094FEF7C0FD07B0F0BD6C
:10366000B4000020F0B50127022689B00590FFF7CD
:10367000DDFE114D07AC7F42012310226521280099
:10368000029701960094FEF75FFE10222123217815
:10369000280091430B430F21237063788B430599D6
:1036A0001943617001236421029701960094FEF78B
:1036B00095FD09B0F0BDC046B40000207FB5040000
:1036C0000D00160045280DD8FFF7B0FE012322009B
:1036D0005B420293642104482C3201960095023328
:1036E000FEF77CFD7FBDC046B40000201FB513006F
:1036F00045280BD801240200644201930091012364
:10370000652103482C320294FEF71EFE1FBDC04601
:10371000B40000200A23C046013B002BFBD1013836
:103720000028F7D17047000070B501230225044C32
:103730002800A361A561FFF7EDFFA56270BDC0463B
:1037400000140048F8B50500082401270A4E02239A
:10375000B7623D420DD0B3610320013CFFF7DAFFB1
:10376000E4B20320B761FFF7D5FF6D08002CEDD15F
:10377000F8BDB362F0E7C0460014004870B50125FB
:10378000054C0520A562FFF7C5FFA5610220FFF7E4
:10379000C1FFA56270BDC0460014004870B5012687
:1037A0000225074C0220A662FFF7B4FF2800A5629D
:1037B000FFF7B0FF2800A661FFF7ACFFA56170BD61
:1037C0000014004810B50400793CFFF7ADFFE0B2EB
:1037D000FFF7B8FFFFF7D2FFFFF7E0FF10BD10B50E
:1037E0000820FFF7EFFF10BDF0B587B00C00029383
:1037F0000A210623009001921F00013BDBB21A0050
:103800000120013AD2B2FF2A48D1A04202D9002BAE
:10381000F2D11F000025244B04AE0393AF4203D81E
:103820000023029A9A4205D00A212000FCF706FDE7
:10383000039B5B5C019AAA4232D0200033700A21BC
:10384000FCF776FC0135EDB204000136062DE5D11A
:103850000024FFF769FF4020FFF774FFFFF78EFF9A
:10386000FFF79CFFFFF760FFC020FFF76BFFFFF73C
:1038700085FF009D04ABED18009B0020A34200D300
:1038800028780134E4B2FFF75DFF013DFFF776FFD2
:10389000062CF1D1FFF782FF07B0F0BD4843B0E737
:1038A000802252421343C8E7573B000870B504001A
:1038B0000D00403CFFF738FF4420FFF743FFFFF7C0
:1038C0005DFFFFF76BFFFFF72FFFE0B2FFF73AFF57
:1038D000FFF754FF2800FFF735FFFFF74FFFFFF713
:1038E0005DFF70BD2D39CBB210B50021482B01D83A
:1038F0000449C95C531E9A41D2011143FFF7D6FF18
:1039000010BDC0460E3B00080D4885460D480E49C7
:103910000E4A002302E0D458C4500433C4188C4229
:10392000F9D30B4A0B4C002301E013600432A2428E
:10393000FBD3FFF74BFD00F019F8FCF7A2FDFEE703
:103940000010002000000020080000206C3B000850
:103950000800002038020020FEE70300821893428E
:1039600000D1704719700133F9E7000070B50026E7
:103970000C4C0D4D641BA410A64209D1002600F08A
:1039800023F80A4C0A4D641BA410A64205D170BD51
:10399000B300EB5898470136EEE7B300EB58984771
:1039A0000136F2E7643B0008643B0008683B00080E
:1039B000643B0008002310B59A4200D110BDCC5CD6
:1039C000C4540133F8E70000F8B5C046F8BC08BCA1
:1039D0009E467047F8B5C046F8BC08BC9E46704786
:1039E0001E04430468048D04B304DA0400052805AA
:1039F0004F0577059F05C705F005180641066A06BD
:103A00009306BC06E5060D0736075F078707B00774
:103A1000D807000827084E0875089C08C208E8085F
:103A20000E09330957097B099F09C209E509070AED
:103A3000290A4A0A6B0A8B0AAA0AC90AE70A050B6D
:103A4000220B3F0B5B0B770B920BAC0BC60BE00B07
:103A5000F80B110C290C400C560C6D0C820C980CB8
:103A6000AC0CC00CD40CE70CFA0C0D0D1F0D300D76
:103A7000410D520D620D720D810D900D9F0DAD0D1A
:103A8000BB0DC90DD60DE30DF00DFC0D080E130E88
:103A90001F0E2A0E350E3F0E490E530E5D0E670E99
:103AA000700E790E820E8A0E920E9B0EA30EAA0E37
:103AB000B20EB90EC00EC70ECE0ED50EDB0EE10E45
:103AC000E70EED0EF30EF90EFF0E040F090F0E0FA9
:103AD000130F180F1D0F220F260F2B0F02030405C3
:103AE000060708090A0B0C0D0E0F10100001020347
:103AF0000405060708090A0B0C0D0E0F1000000044
:103B0000000000000000010203040607080940004D
:103B1000003F065B4F666D7D077F6F000000000071
:103B20000000777C395E79710076301E00380054D1
:103B30005C7300506D443E00000000000000000077
:103B40000800777C585E79710074101E00380054AC
:103B50005C7300506D441C3F065B4F666D7D077FB4
:043B60006F000000F2
:043B6400E90000086C
:043B6800C100000890
:083B6C001900000000127A00AC
:0400000508003909AD
:00000001FF
