:020000040800F2
:1000000000100020D53500084116000843160008EE
:1000100000000000000000000000000000000000E0
:10002000000000000000000000000000451600086D
:1000300000000000000000004716000849160008F4
:100040002536000800000000253600082536000887
:1000500025360008511600085B16000825360008F2
:10006000000000006D16000825360008253600083F
:100070002536000825360008253600080000000057
:1000800025360008000000000000000025360008AA
:10009000000000007D1600088D16000825360008B7
:1000A000000000002536000800000000253600088A
:1000B0000000000000000000000000000000000040
:1000C00010B5064C2378002B07D1054B002B02D02E
:1000D000044800E000BF0123237010BD0800002089
:1000E0000000000094360008044B10B5002B03D02C
:1000F0000349044800E000BF10BDC04600000000F6
:100100000C0000209436000802B4714649084900EA
:10011000095C49008E4402BC7047C04603B4714676
:10012000490840004900095A49008E4403BC704701
:10013000002243088B4274D303098B425FD3030A26
:100140008B4244D3030B8B4228D3030C8B420DD339
:10015000FF22090212BA030C8B4202D312120902C7
:1001600065D0030B8B4219D300E0090AC30B8B4205
:1001700001D3CB03C01A5241830B8B4201D38B03B3
:10018000C01A5241430B8B4201D34B03C01A524158
:10019000030B8B4201D30B03C01A5241C30A8B429B
:1001A00001D3CB02C01A5241830A8B4201D38B0286
:1001B000C01A5241430A8B4201D34B02C01A52412A
:1001C000030A8B4201D30B02C01A5241CDD2C3099C
:1001D0008B4201D3CB01C01A524183098B4201D318
:1001E0008B01C01A524143098B4201D34B01C01A03
:1001F000524103098B4201D30B01C01A5241C3087B
:100200008B4201D3CB00C01A524183088B4201D3E9
:100210008B00C01A524143088B4201D34B00C01AD5
:100220005241411A00D20146524110467047FFE741
:1002300001B5002000F006F802BDC0460029F7D045
:1002400076E770477047C0461FB56A46144B69464B
:100250001380144B00201B789370134B1B78D370C2
:10026000124B1B781371124B1B785371114B1B7877
:100270009371114B1B78D371104B1B781372104B79
:100280001B7853720F4B1B7893720F4B1B78D372F2
:100290000E4B1B7813730D2203F076F805B000BDEA
:1002A000FAFAFFFF600000205D0000205C000020E3
:1002B00038000020370000205B0000205A0000209A
:1002C00059000020740000207300002072000020FC
:1002D000002302210D4A13700D4A13700D4A13704A
:1002E0000D4A11700D4A083111700D4A0A31137010
:1002F0000C4A083313700C4A11700C4A13700C4AE4
:10030000137001220B4B1A707047C046600000202A
:100310005D0000205C000020380000203700002035
:100320005B0000205A0000205900002074000020CB
:1003300073000020720000202C4B70B51B78002B3E
:100340000BD02B4B2B4D19782B4B1A78EB78914215
:1003500004D8994201D89A4202D270BD9942FAD883
:10036000264A1278002A07D0254A1278002A03D19B
:10037000244A12789A42F0D06B782C783B2B15D116
:10038000362C2DD9204E3378A342E6D002F0AAFCB9
:100390001E4B0022186090204021C00502F060FD35
:1003A00001221B4B1A702B783370D6E7002B17D124
:1003B000002C17D1144E3378002BCED002F092FCD3
:1003C000124B2200186090204021C00502F048FD29
:1003D00001220F4B34701A70EA780E4B1A70BCE78A
:1003E000002CBAD0FF22084BF8E7C0465B00002083
:1003F0005A0000206A000020590000206000002000
:100400005C0000205D00002001000020540000205E
:100410005000002058000020012210B5034B044872
:100420001A70044B1A7001F003FF10BD5E0000202B
:10043000640100205F000020902070B51A4C40211C
:100440002368C0050133236002F004FD2368051E04
:100450000DD1322B0AD9902001224021C00502F093
:10046000FFFC124A256013680133136070BD0F4D05
:100470002A68032A0AD8322BF8D99020002240217A
:10048000C00502F0EDFC00232360EFE7FA225200E2
:100490009342EBD9902000224021C00502F0E0FCFD
:1004A000002323602B60E1E7400000203C00002097
:1004B0000022064B10B506481A7001F0C3FE9020CA
:1004C00001224021C00502F0CBFC10BD5E000020DF
:1004D00064010020F8B5134C134EE2783378134DC5
:1004E0009A4208D0124B1B78002B01D0FFF7E0FF97
:1004F00000232B7015E00F4F62783B789A42F1D1C0
:100500002B78002B0DD10C4B1B78002B09D0FFF75B
:1005100083FFE27833789A42E4D162783B789A425A
:10052000E0D1F8BD6A0000205D0000205F000020DF
:100530005E0000205C0000206000002030B5134BFE
:10054000134C5A682178134B90B2072911D84D1CCF
:1005500049002570585200230F490888904205D25F
:100560000133DBB202317E2BF7D100230B4A13702B
:1005700030BD08210022188258880139C9B218807C
:10058000121802330029F7D1D208E4E778000020DE
:100590003600002024000020AC36000800000020B7
:1005A00070B5344C200002F0E9FD082221003248E9
:1005B00003F066F8314B1D78002D13D16422E378E7
:1005C00061785343C9182E4B9B321B78002B00D007
:1005D000FD3A0123032002F06DFFFFF77BFFFFF7D9
:1005E000ABFE70BD012D1ED100222021100002F0B3
:1005F000DFFF2A002021280002F0DAFF0A212078FC
:10060000FFF796FD30300022C1B2022002F0D0FF89
:100610000A212078FFF712FE00223031C9B20320F0
:1006200002F0C6FFD9E7022DD7D1FFF787FF154C9F
:100630002378632B01D9632323700022202110002B
:1006400002F0B6FF0A212078FFF772FD3030002259
:10065000C1B2012002F0ACFF20780A21FFF7EEFDC5
:1006600030310022C9B2022002F0A2FF0022432151
:10067000D5E7C0466A000020620000208500002007
:100680006100002000000020F7B5A24B1878033865
:100690000C2800D917E1FFF741FD0D002F0047009E
:1006A00054006B009400AA00BE00CC00D700E2000A
:1006B000EE0002012026984B37001B78974C002B48
:1006C0000CD1E5780A212800FFF732FD30300A21ED
:1006D000C6B22800FFF7B2FD3031CFB264780A21EC
:1006E0002000FFF725FD30300A21C5B22000FFF7BA
:1006F000A5FD3031CCB24FE0884B0A210193DC7864
:100700002000FFF715FD30300A21C6B22000FFF7A8
:1007100095FD2024804B30311B782500CFB2002B73
:100720003AD1019B5C78DAE77B4B1B78002B00D039
:10073000CEE07B4B6E241B78002B00D146246F2526
:10074000C8E02026744B37001B78002B0DD1754B69
:100750000A211C782000FFF7EBFC30300A21C6B2DA
:100760002000FFF76BFD3031CFB26F4B1C78B6E73E
:100770006C4B0A211C782000FFF7DAFC30300A218C
:10078000C6B22000FFF75AFD2024634B30311B789E
:100790002500CFB2002BE8D000223100100002F07B
:1007A00007FF01223900100002F002FF2900002299
:1007B000022002F0FDFE00222100032002F0F8FEDC
:1007C000F7BD554B1B78002B00D086E0574B0A2114
:1007D0001C782000FFF7ACFC30300A21C5B22000A5
:1007E000FFF72CFD3031CCB253275426D4E74A4BC7
:1007F0001B78002B74D14E4B0A211C782000FFF788
:1008000097FC30300A21C5B22000FFF717FD3031C8
:10081000CCB24827E9E7474B1C78002C63D03E4B0D
:100820001B78002B62D130253034E4B27227622667
:10083000B2E7394B1B78002B5BD130253E4B1C783F
:100840003034E4B23127F2E7334B1B78002B53D11D
:1008500030253A4B1C783034E4B23227E7E72E4B90
:100860001B78002B4BD1364B6E241B78002B00D10C
:1008700046246F2545E0284B1B78002B44D1314B93
:100880000A211C782000FFF753FC30300A21C5B242
:100890002000FFF7D3FC3031CCB2532732E01E4B9F
:1008A0001B78002B33D1284B0A211C782000FFF73E
:1008B0003FFC30300A21C5B22000FFF7BFFC3031C9
:1008C000CCB265271EE0002425002700260063E740
:1008D000202425004C2741265EE72024250083E7BD
:1008E0002024250095E7552441259FE72024250055
:1008F0009CE720242500A5E720242500ADE720243F
:1009000025006F27722647E720242500C5E720240D
:100910002500D6E78500002061000020620000204D
:10092000600000205D0000205C00002038000020F6
:1009300037000020740000207300002072000020A7
:100940005B0000205A00002059000020454B70B584
:100950001B78002B02D0FFF7ABFD70BD424B18781F
:100960000F28FAD8FFF7D0FB0813081B21262D2FDC
:10097000313739404C587A7C03221A703B4BFC3299
:100980001A70FFF781FE092002F0D2FCE5E7002390
:100990003748037002F042FCFFF702FEDDE7042255
:1009A0001A70FF22314B1A7027E005221A700022BC
:1009B0002E4BF8E72F4A117808220029F0D0023A8E
:1009C000EEE70722ECE70822F0E72B4A12785142C3
:1009D0004A410932EAE70A22E8E7284A11780D225B
:1009E0000029E3D1023AE1E70C221A7000221F4BE2
:1009F0001A70234B187802F04BFDFFF745FEACE769
:100A00000D2200241A70194B1C701E4B187802F02E
:100A10003FFD1D4B1C70F0E70021144A11701B4A6A
:100A200012788A4218D11A4D1A70280002F0A6FBDB
:100A30000F4C2B782000237002F0F0FB154BE2786E
:100A40001A70FFF701FCFFF7ABFD02F049FC02F062
:100A500049F9114B186080E70E22A4E70F22A5E7A1
:100A60000022E0E75E0000208500002061000020F9
:100A70006200002060000020380000207400002088
:100A80007200002073000020020000205B000020A4
:100A90006A00002058000020800000200A4B10B59A
:100AA0001978002902D0FFF703FD10BD074A13781B
:100AB000033B0C2BF9D81170FFF772FD02F012F90D
:100AC000034B1860F1E7C0465E000020850000205F
:100AD00080000020454B10B51B78002B02D0FFF79B
:100AE000E7FC10BD424B18780F28FAD8FFF70CFB33
:100AF000080D0816222B3037404C55657577797BE9
:100B000001221A70FFF74CFDEBE700221A70FFF785
:100B100047FD02F0E7F8374B1860E2E7364AD37832
:100B20000133DBB2172B00D90023D3700022334BE3
:100B30001A704FE0304A53780133DBB23B2B00D9B7
:100B400000235370F2E72E4A012311784B400DE049
:100B50002C4A13780133DBB2172B06D806E02A4A59
:100B600013780133DBB23B2B00D900231370DDE790
:100B7000264A13780133DBB213700F2BD6D9244BDE
:100B80001B7859424B41F1E7214A13780133DBB21C
:100B900013701E2BCAD91D4BF2E71E4A137801337E
:100BA000DBB2082B00D900231370181C002B00D1D6
:100BB0000120C0B202F06CFCB8E7174B1878013086
:100BC000C0B2082800D90120002218700B4B1A70FF
:100BD00002F05EFCFFF758FD83E7104BEEE7104A8A
:100BE000B2E7104AB5E7104AB3E7C0465E000020FE
:100BF00085000020800000206200002061000020AD
:100C0000600000205D0000205C0000203800002013
:100C100037000020740000207300002072000020C4
:100C20005B0000205A00002059000020012210B56E
:100C3000274B1A70274B187803380C2815D8FFF764
:100C400063FA0715141E252E3A1414141443450094
:100C5000214AD3780133DBB2172B00D90023D3709C
:100C600000221E4B1A70FFF70FFD10BD1A4A537871
:100C70000133DBB23B2B00D900235370F0E7184A55
:100C800013780133DBB2172B06D806E0154A137828
:100C90000133DBB23B2B00D900231370E0E7124A8B
:100CA00013780133DBB213700F2BD9D90F4B1B789C
:100CB00059424B41F1E70D4A13780133DBB213700F
:100CC0001E2BCDD9084BF2E7094AD9E7094AD7E7E5
:100CD0003900002085000020620000206100002013
:100CE0005D0000205C00002038000020370000205C
:100CF0005A0000205900002010B501F0F3FF014B0D
:100D0000186010BD4800002010B501F0EBFF084B43
:100D1000084C1B68834204D9FFF7DCFE00232370D4
:100D200010BDC01A3228F9D92378002BF6D1F3E789
:100D3000480000203900002010B501F0D3FF014B1E
:100D4000186010BD4C00002010B501F0CBFF094B1E
:100D50001B68834202D9FFF7F9FD10BDC01AC823F2
:100D60009B00984202D9FFF799FEF6E73228F4D9A2
:100D7000F1E7C0464C00002010B5102494B02C229E
:100D8000002109A802F04FFC22000021684602F071
:100D90004AFC2200002104A802F045FC122308931B
:100DA000113B0B930D9380230C940E941B030E3C6C
:100DB00008A81094129301F037FC01940024072333
:100DC0002100684600930294039401F03DFE202325
:100DD00004A80493079401F0D5FE14B010BD0000E0
:100DE000F0B587B001F066FFFFF7C6FF00F0F4F939
:100DF00000F0F2FA00F006FB00F062FA00F0C2FB2D
:100E000000F064FB00F0A0FB0D22002002A902F01C
:100E1000D3FA02AB9A4A1B789A4D9B4F9B4E9C4C3F
:100E20000092FA2B00D1CCE002AB5B78FA2B00D118
:100E3000C7E00F23EB710E3B0222AB716B712B717C
:100E400000232800EB706B70AA702B7002F0E6F99B
:100E5000FFF73EFAFFF7F8F93A780123172A05D889
:100E60008C4B1A783B2393429B415B423278172A82
:100E700000D9D4E0884A1278172A00D9CFE0227826
:100E8000082A0BD8854A1278013A072A06D8844ADC
:100E90001278013A072A01D8002B03D0FFF718FA7D
:100EA000FFF7D2F902F001FB2478002C00D1B8E062
:100EB000200002F0EDFA7B4C200000F003FE7A499E
:100EC0000222200000F0F0FC784801F0A5F97848F3
:100ED00001F0AEF9280002F051F9764BEA780024CF
:100EE0001A7002F0FDF901F0FDFE0122724F734B02
:100EF00038601A7090204021C00501F0ABFF002837
:100F000025D101F0EFFE6E4B04001B78002B1ED1A3
:100F10006C4B6D4E1A683378002B00D187E029782E
:100F20006B780B43591E8B4168495B420B40FA2199
:100F300089005B18904202D3821A9A4207D390200C
:100F400001224021C00501F08BFF00233370009A7D
:100F50005F4E12783378002A00D18CE0002B74D1D8
:100F600001F0C0FE3B680400834207D8FA21594AC9
:100F700089001278C31A4A439A4202D80223337076
:100F80003C6090200821C00501F064FF0028B1D129
:100F90003378033B0C2BADD801F0A4FEC8224E4B96
:100FA00006001B689200C31A9342A3D94B4B0193CE
:100FB0001B68C31AFA2B9DD9FFF738FE019B1E60F0
:100FC00098E702AA9278464B511E8A411A7002ABEA
:100FD000DB7802AA3B7012792E4B1A7002AB5B7958
:100FE000009A137002AA92793A4B1A7002AAD27927
:100FF0003C4B511E8A411A7002AB1B7A02AA337015
:10100000527A254B1A7002AB9B7A02AA2370D27ACD
:10101000224B1A7002AA224B127B1A701CE7012382
:101020002DE7082002F034FA2F4B1C7043E7904262
:1010300004D3FA23821A9B009A4288D3902001227B
:101040004021C00501F00CFF81E7022B99D1214B13
:101050001B78002B95D001F045FE3B6804008342CD
:1010600007D8FA21009A89001278C31A4A439A4293
:1010700087D8002383E7022B83D1327080E7C046F4
:10108000380000206A0000205D0000205A00002087
:10109000740000205C000020590000207300002034
:1010A00072000020CC00002078000020E401002025
:1010B000A4010020580000208000002084000020AF
:1010C0005E00002054000020500000207CFCFFFF48
:1010D0008500002037000020480000204400002048
:1010E000600000205B00002002000020010010B51D
:1010F000022814D1184B1B78002B09D0174B1B78F2
:10110000022B06D8FFF74CFA154A1378DB4313700D
:1011100010BD033B0C2BF7D8FFF7B6FAF4E7042811
:101120000BD19020C00501F095FE002802D1FFF7F9
:1011300003FEEDE7FFF708FEEAE70828E8D1902074
:10114000C00501F087FE002802D1FFF7D5FDDFE7DB
:10115000FFF7DAFDDCE7C0468400002085000020B0
:10116000610000200368134A10B5934202D1FFF7D3
:1011700063F910BD104A9342FBD1104B1978002936
:10118000F7D10F4B1A680F4B187800280BD0AF20FF
:1011900000018242EDD919700B4B18780028E8D075
:1011A00002F076F9E5E709498A42E2D801221A708D
:1011B000074BF2E700480140004401407400002062
:1011C000780000200200002073000020FB080000CF
:1011D0007200002070470000F0B589B01422002191
:1011E00003A802F020FA8021304BC9035A699026E7
:1011F0000A435A615A692E4F0A4080210092009A90
:101200005A6989020A435A615A69F6050A408021DF
:101210000192019A5A69C9020A435A615B6938000E
:101220000B40029301220321029B01F019FE0122CF
:101230003000402101F014FE032300240125380072
:10124000039303A90E3304930594069501F050FD12
:101250000C230393174B300003A90493059501F069
:1012600047FD4023300003A9039304950594069499
:1012700001F03EFD022303930F4B03A90F48049393
:10128000059501F035FD22002100052001F0B6FE94
:10129000052001F0DBFE22002100062001F0AEFE59
:1012A000062001F0D3FE09B0F0BDC0460010024098
:1012B0000014004800003110000021100004004814
:1012C00030B585B00C22002101A802F0ACF904224F
:1012D0001A4C1B4B6261BC32A26280220025236043
:1012E0000123D20020006560A560E5602361A5614F
:1012F000E56123626562E2622363636300F032FAB0
:10130000A84201D0FFF766FF80235B010293072309
:10131000200001A90195039300F05EFB002801D095
:10132000FFF758FF0123200001A9019300F054FBAF
:10133000002801D0FFF74EFF05B030BDCC000020E3
:101340000024014070B5050088B01422002103A8D4
:1013500002F069F91C4B2A689A4232D1802680211A
:101360001A4BB6009A69890232439A619A699020B1
:1013700032400192019A5A69C0050A435A615B6979
:101380000B400293029B032303A90393049301F0F0
:10139000AFFC80220E4C0F4BE260802212012360D2
:1013A00062610023202220006360A3602661A261A5
:1013B000E36101F067FD002801D0FFF70BFFEC634C
:1013C000656208B070BDC0460024014000100240B4
:1013D000880000200800024007B50121084B0920C1
:1013E0005A690A435A6100225B690B40019311005C
:1013F000019B01F003FE092001F028FE07BDC04655
:101400000010024010B5134B134C01222360134B04
:10141000200063600023E260A36023616361A36135
:10142000E361236200F0E8FC002801D0FFF7D2FE60
:101430000021200000F0A6FE002801D0FFF7CAFE20
:101440000021200000F0C4FE002801D0FFF7C2FEFA
:1014500010BDC04600540040180100200B020000DF
:1014600010B5040088B01422002103A802F0DBF8B4
:10147000144B22689A4222D18022134C9202636953
:10148000902013436361636903A913400193019B97
:10149000C023DB00039312230493113B0593023313
:1014A0000693C0050133079301F022FC8022E36913
:1014B00092031343E361E36913400293029B08B074
:1014C00010BDC046005400400010024010B586B068
:1014D0001022002102A802F0A6F808220021684686
:1014E00002F0A1F8154C164B164A23600F236360D7
:1014F00000232000A360E2602361A36100F09EFF4F
:10150000002801D0FFF766FE802320005B0102A9BE
:10151000029300F0BBFF002801D0FFF75BFE202301
:101520000093002369462000019301F059F8002838
:1015300001D0FFF74FFE06B010BDC046E401002009
:10154000000400400F2700000A480B4B10B5036051
:101550000A4B0B4A4360002383600361436180337D
:10156000C260836100F06AFF002801D0FFF732FEFD
:1015700010BDC046A4010020004401403F06000009
:101580000F2700000A480B4B10B503600F23436080
:101590000023094A8360036143618033C260836131
:1015A00000F04CFF002801D0FFF714FE10BDC0462C
:1015B0006401002000480140E70300001FB50368F4
:1015C0001B4A93420AD102211A4BDA690A43DA61B3
:1015D000DB690B400193019B05B000BD164A9342A5
:1015E00012D18021134B89029A6915200A439A610E
:1015F00000229B690B4002931100029B01F0FEFC4C
:10160000152001F023FDE7E70C4A9342E4D1802145
:10161000084BC9029A6916200A439A6100229B6905
:101620000B4003931100039B01F0E8FC1620E8E750
:101630000004004000100240004401400048014006
:101640007047FEE77047704710B501F043FB10BDCF
:1016500010B5022001F00AFC10BD10B5042001F005
:1016600005FC082001F002FC10BD000010B5024886
:1016700001F07AFC10BDC0468800002010B5024879
:1016800000F0FAFD10BDC046A401002010B50248CC
:1016900000F0F2FD10BDC0466401002001210A4B9C
:1016A00082B09A690A439A619A690A40802100923D
:1016B000009ADA6949050A43DA61DB690B40019354
:1016C000019B02B07047C04600100240002373B572
:1016D00003210193036804009A680A40012A07D194
:1016E0001968114201D0002076BDDA681204FAD4DC
:1016F0009968194A114209D01023626C134363643C
:101700000123A26C13430120A364EDE70122996831
:101710000A439A60114B12491868FEF709FD0190BF
:10172000019B002B13D101F0DDFA0126050023688F
:101730001B683342D7D101F0D5FA401B0228F6D9F5
:101740001023626C13436364A36C3343DBE7019B98
:10175000013B0193E4E7C04617000080040000202D
:1017600040420F0070B5041E00D18FE0436C002B87
:1017700005D10200403283641370FFF7E3FD636C10
:10178000DB0600D584E0226893685B0700D57FE024
:10179000616C424B19400633FF330B4303216364F2
:1017A00093680B40012B05D1116819420ED1D36803
:1017B0001B040BD41821D3688B43A1680B43D3605F
:1017C000136961689B009B080B431361D36834491C
:1017D000E0690B40D360A369C0039B030343216A04
:1017E000E068034348030343206B40000343606BFE
:1017F0000138451EA84100030343206902384542D1
:10180000684180000343606A012804D100292BD17C
:10181000802149020B43C220A16AFF30814202D0DD
:10182000E06A01430B438020D16840051943D16031
:10183000A16B814202D0481E062807D807255069AF
:101840002940A8435061506901435161D26815494C
:101850000A409A4210D100200323A064626C9A438C
:10186000023B1343636470BD2021656C29436164AE
:10187000A16C0843A064CEE71223626C9A43023B3A
:10188000134363640123A26C1343A3640120EAE7BA
:101890001023626C13436364F8E7C046FDFEFFFF4C
:1018A0001902FEFFE7FF3F83F7B5036804009B685A
:1018B0000E00022001925B0730D4270040373B78AE
:1018C000012B2BD001233B70E369012B27D1626CE4
:1018D000164B00251A4080235B0013436364A56404
:1018E0003D70E06B124B21688362124BC362124B56
:1018F00003631C230B604A680C3B13434B600123BA
:10190000CA681343CB603200019B403101F0F0FA0A
:1019100004232800226891680B439360FEBD2000D9
:10192000FFF7D4FE0028D2D0F8E7C046FEF0FFFF54
:1019300041190008B3190008BF19000870470000DA
:101940005022436A10B5596C11422BD1596CB132F7
:10195000FF320A43C0215A641A680901D06808425C
:1019600013D1196A002910D1116809070DD59168A2
:1019700049070ED40C20516881435160596C0B4AC1
:1019800011400432FF320A435A641800FFF7D6FFB1
:1019900010BD2022596C0A435A640122996C0A43F3
:1019A0009A64F2E7DB6B1B6B9847F1E7FEFEFFFFE3
:1019B000704710B5406AFFF7FBFF10BD704740232A
:1019C000406A10B5426C134343640423826C134392
:1019D0008364FFF7F3FF10BDF7B500220400019206
:1019E000403422780300866B0220012A2CD0013873
:1019F00020701D68AA68520754D40A684F68130003
:101A0000BC462B4F9040103BBC453CD0AF6A38439E
:101A1000A862072E0FD8002E11D107206E698968A1
:101A20000640B1420BD06E69014086436E616E691B
:101A30003143696103E0802040058642EDD1012BEE
:101A400003D9002000232370FEBD1300103B5D1E50
:101A5000AB41802517495B429B0D08689B052D040F
:101A60005B1903430B60102AEBD1134B1349186821
:101A7000FEF75EFB0A2343430193019B002BE0D05A
:101A8000019B013BF8E7AA6A8243AA62012BD8D8DE
:101A9000581E8341074A0A4811689B051B180B40D2
:101AA0001360CEE72022596C0A435A64CAE7C04645
:101AB00001100000082701400400002040420F00F0
:101AC000FFFF7FFFF8B506004036337804000220A0
:101AD000012B41D001230321337023689A680A4007
:101AE000012A05D11968114237D1DA68120434D4B9
:101AF000616C1D4A11400632FF320A4303216264C1
:101B0000DD68DA688A43DA608022996812060A433F
:101B10009A6001F0E7F8070023689A68002A0DDB55
:101B20000321DA680D401543DD6001230020626C5B
:101B30008A4313436364002333700DE001F0D2F84D
:101B4000C01B0228E8D91223626C01209A43023B91
:101B50001343636400233370F8BD2023626C0120BB
:101B600013436364E7E7C046FDFEFFFF03689A691D
:101B7000920701D500229A6201229969114202D18D
:101B800099690A439A617047006830B54468064D08
:101B900012042C40039D89052B431A43890D0A43E7
:101BA0002243426030BDC046009800FCF8B50400F6
:101BB0000E0017001D002268936933409B1B594299
:101BC0004B41BB4201D000200EE06B1CF4D0002D35
:101BD0000BD12300202241331A702200002303205E
:101BE0004232403413702370F8BD01F07BF8069B3D
:101BF000C01AA842DFD9ECE7F7B5036801929A69E9
:101C00000400102310000E00202718401A4216D19D
:101C1000FEBD731C14D0002E05D001F063F8019BAB
:101C2000C01A86420BD22300202241331A702200B0
:101C3000002342324034137003202370E8E7256804
:101C4000AB693B42E5D010232000EB61EF61FFF769
:101C50008DFF6B68074A012013406B6004236364A7
:101C60002300220041331F7000234232403413709E
:101C70002370CDE700E800FEF8B504000D00160063
:101C8000022723689B693B4201D0002018E0320004
:101C900029002000FFF7B0FF002818D16B1CF0D0FE
:101CA000002D0ED12022636C0320134363642300B4
:101CB00041331A70220000234232403413702370E3
:101CC000F8BD01F00FF8801BA842DAD9EAE701203D
:101CD000F6E7F7B515001E00DAB280239B010093EA
:101CE00080230400099F5B04FFF74EFF3A002000A9
:101CF0000899FFF7C1FF002805D0636C0120042B71
:101D000000D00320FEBD2368012E0BD1EDB29D62F1
:101D1000002280212000089B0097FFF747FF002842
:101D2000F0D0EEE72A0A9A6220003A000899FFF7FD
:101D3000A3FF0028E1D12368E8E7F7B515001E00EE
:101D4000DAB280230400099F9B0100930023FFF770
:101D50001BFF3A0020000899FFF78EFF002805D0EE
:101D6000636C0120042B00D00320FEBD2368012EEC
:101D70000BD1EDB29D62002240212000089B00970C
:101D8000FFF714FF0028F0D0EEE72A0A9A6220003D
:101D90003A000899FFF770FF0028E1D12368E8E7CF
:101DA000F8B504000D001600202723689B693B420C
:101DB00001D0002016E0320029002000FFF71CFFB0
:101DC000002816D1002D0ED12022636C032013436E
:101DD0006364230041331A702200002342324034EE
:101DE00013702370F8BD00F07DFF801BA842DCD982
:101DF000EAE70120F6E7000070B504000120002C9E
:101E00003FD0250041352B78DAB2002B05D12300D5
:101E1000403320001A70FFF723FB242301212B708D
:101E20002368E0681A68A6688A431A601A496268DB
:101E30000A401A619A6819490A409A60012821D11A
:101E40008022120232439A605868154A02435A604F
:101E5000DA6800200A40DA60616922690A43A169F0
:101E600009020A43DA60216AE2690A431A60012220
:101E700019680A431A60202360642B70206342347F
:101E8000207070BD8422120232439A600228DBD196
:101E9000802212015A60D7E7FFFFFFF0FF7FFFFFAC
:101EA00000800002F0B5070089B007930EAB0692E0
:101EB00004CB02911B880492059341373B780400C0
:101EC0000220202B36D1002A33D0059B002B30D0A6
:101ED0002300403303931B78012B2BD00126039B57
:101EE0001E7000F0FFFE80213200009005001923D3
:101EF00020000902FFF75AFE061E1FD121233B7066
:101F00001F337B70049B60646362059B6063638521
:101F1000109B20000093069A079B029901950137B8
:101F2000FFF7D7FE00280BD0636C042B04D1039B72
:101F30001E70012009B0F0BD039B1E700320F9E75D
:101F4000638DFF2B13D9FF22802322855B04009031
:101F500020000299FFF718FE2A0020001099FFF7D1
:101F60008BFE00280BD0636C042BE7D1E1E78023C4
:101F7000628D9B0492B22285D2B20090E8E7636A38
:101F80005A1C62621B7822689362638D228D013B2A
:101F9000013A9BB292B263852285002A16D1638DE5
:101FA000002B13D080212000109B0095FFF7FEFD31
:101FB0000028C3D1638DFF2B20D9FF2280232285E7
:101FC0005B04009020000299FFF7DEFD638D002B7B
:101FD000C2D12A0020001099FFF7E2FE0028C2D1EA
:101FE00020212368094DD9615A682A405A6023008C
:101FF000403441331970387020709BE78023628D24
:102000009B0492B22285D2B20090DBE700E800FE8A
:10201000F0B5070089B007930EAB069204CB02918E
:102020001B880492059341373B7804000220202B43
:1020300036D1002A33D0059B002B30D0230040330B
:1020400003931B78012B2BD00126039B1E7000F0FD
:1020500049FE80213200009005001923200009026A
:10206000FFF7A4FD061E1FD122233B701E337B7099
:10207000049B60646362059B60636385109B200022
:102080000093069A079B029901950137FFF755FEC9
:1020900000280BD0636C042B04D1039B1E7001201D
:1020A00009B0F0BD039B1E700320F9E79023628DF9
:1020B0009B01FF2A46D9FF222285009380235B04DF
:1020C00020000299FFF760FD002204212000109BF0
:1020D0000095FFF76BFD0028E6D123685A6A636A12
:1020E000591C61621A70228D638D013A013B92B2D4
:1020F0009BB222856385002A16D1638D002B13D0F5
:1021000080212000109B0095FFF750FD0028CBD1C7
:10211000638DFF2B1ED9FF22802322855B04009054
:1021200020000299FFF730FD638D002BCCD12A00EF
:1021300020001099FFF734FE002813D0636C042BA5
:10214000B2D1ACE7628D92B2228500938023D2B2E5
:102150009B04B5E78023628D9B0492B22285D2B2A4
:102160000090DDE720212368054DD9615A682A4097
:102170005A602300403441331970387020708FE763
:1021800000E800FEF0B504004134227803000F009F
:102190000220D6B2202A18D11D0040352A78012A03
:1021A00013D0242222701B68233A196807489143F0
:1021B00019601968014000201960196839431960D5
:1021C00019680A431A6026702870F0BDFFEFFFFF00
:1021D0000200F0B5413214780300E5B20220202C51
:1021E00017D11C0040342678012E12D022301070F6
:1021F0001B6823381E68074F86431E601E6809024D
:102200003E4031431960196808431860002015707A
:102210002070F0BDFFF0FFFF0200022301213D32DC
:102220001370006803680B4303600020117070474F
:10223000012203680020D9681143D96019680A4354
:102240001A60704701210368DA688A43DA60186A05
:10225000054A104206D1186A044A104202D11A688F
:102260008A431A60002070471111000044040000E6
:1022700070477047704770470222036810B51969AC
:10228000040011420ED0D96811420BD0053A1A61F0
:10229000043202779B699B0700D179E0FFF7E9FFE1
:1022A00000232377042223681969114210D0D968CA
:1022B00011420DD0093A1A61073222779A69C02378
:1022C0009B0020001A4269D0FFF7D3FF0023237739
:1022D00008222368196911420ED0D96811420BD027
:1022E000113A1A610D322277DB6920009B075BD01F
:1022F000FFF7BFFF002323771022236819691142DB
:1023000010D0D96811420DD0213A1A6119322277C2
:10231000DA69C0239B0020001A424BD0FFF7A9FFC7
:1023200000232377012223681969114207D0D96855
:10233000114204D0033A20001A61FEF713FF8022F5
:1023400023681969114208D0D968114205D0023AB0
:10235000FF3A20001A6100F066F9402223681969EB
:10236000114207D0D968114204D0813A20001A6185
:10237000FFF781FF202223681969114207D0D9682D
:10238000114204D0413A20001A6100F04BF910BD0F
:10239000FFF76EFF2000FFF76DFF81E7FFF768FF93
:1023A0002000FFF767FF91E7FFF762FF2000FFF7CC
:1023B00061FF9FE7FFF75CFF2000FFF75BFFAFE7E0
:1023C00010B5184C0368A0420AD0174A904207D0B3
:1023D000164A904209D1164A1A40CB6813430AE0C4
:1023E000702293434A681343F5E7124A9042F2D0B1
:1023F000114A9042EFD0802293434A69134303600D
:102400008B68C3620B688362A04205D0094B984277
:1024100002D0094B984201D10B6903630123436148
:1024200010BDC046002C01400004004000200040C8
:10243000FFFCFFFF004401400048014070B504006C
:102440000120002C14D025003D352B78DAB2002B6A
:1024500005D123003C3320001A70FFF7AFF80223A8
:102460002B702068211DFFF7ABFF012300202B708C
:1024700070BD000030B58468034D0A431B022C4038
:1024800013432343836030BDFF00FFFFF8B5050011
:1024900002223C352C7803001000012C1BD01E00BA
:1024A00001383D36287032701C684B4AA3681340CF
:1024B000A3600B68502B4ED027D8202B00D180E092
:1024C0000AD8002B00D172E0102B00D174E0012358
:1024D000002033702870F8BD302B77D0402BF6D118
:1024E0004A68CB68216A276A1B0187432762F02765
:1024F000A069B84303430A20A361702381430A43C0
:102500002262A2689A43293B10E080225201934242
:102510001CD00DD8602B33D0702BD8D1CB684A6833
:1025200020008968FFF7A6FF7722A368134310E015
:10253000802292019342CAD1CB684A682000896800
:10254000FFF798FF8023A268DB01EFE70722A3686B
:102550009343A360BBE74A68CB68216A276A1B01E3
:1025600087432762F027A069B84303430A20A36189
:10257000702381430A432262A2689A43193BD5E73C
:1025800010204B68CA68216A144F81432162A069F8
:10259000120338400243A020216A1B0181430B43F0
:1025A000A26123627023A2689A43093BBEE77023AD
:1025B000A2689A43693BB9E77023A2689A43593BE2
:1025C000B4E77023A2689A43493BAFE77023A2683F
:1025D0009A43393BAAE7C0468800FFFFFF0FFFFF81
:1025E00030B5040002223C34257803001000012D90
:1025F00017D0180070253D3002701B685A68AA4336
:102600005A605A680D6849682A4380255A609A685A
:10261000AA439A609A680A439A60012303700020D3
:10262000207030BD70477047F0B50368040085B076
:10263000DB072FD423689B0700D581E023681B07A5
:1026400000D5BCE023685B0700D5DFE02368DB062C
:102650001AD562690423B44D012A00D048E1696BA0
:1026600002270B436B636B6B1A436A6300F03AFB00
:1026700006006B6B3B4200D133E1F8216A6BA36922
:102680008A43DB0013436B63216A002900D057E1C2
:1026900000202AE00C22A44D6B681340042B06D0C6
:1026A0006B681340082B0AD16B68DB0307D52B68D6
:1026B0009B03BFD56368002BBCD1012015E0636884
:1026C000012B14D180232A685B0213432B6000F096
:1026D00009FB80270600BF022B683B42AAD100F00D
:1026E00001FB801B6428F7D9032005B0F0BD002B47
:1026F00016D12B688D4A802713402B602B688C4A9B
:10270000BF0213402B6000F0EDFA06002B683B423D
:1027100000D18FE700F0E6FA801B6428F6D9E3E7E2
:10272000052B05D180232A68DB0213432B60C9E700
:102730002B687E4A13402B602B687D4A1340C5E707
:102740000C22794D6B68134206D06B681340082B3E
:1027500010D16B68DB030DD42B689B0702D5E368AF
:10276000012BAAD1F8212A6823698A43DB0013438D
:102770002B6063E7E2680123002A0FD02A68022752
:1027800013432B6000F0AEFA06002B683B42E9D100
:1027900000F0A8FA801B0228F7D9A5E72A680227CB
:1027A0009A432A6000F09EFA06002B683B4200D153
:1027B00044E700F097FA801B0228F6D994E7E26913
:1027C0000123594D002A10D06A6A022713436B6215
:1027D00000F088FA06006B6A3B4200D032E700F056
:1027E00081FA801B0228F6D97EE76A6A02279A439B
:1027F0006A6200F077FA06006B6A3B4200D121E77B
:1028000000F070FA801B0228F6D96DE780220021C3
:10281000454D5205EB690091134208D1EB69134312
:10282000EB61EB6913400393039B01230093802723
:10283000404E7F0033683B4215D0A368012B22D164
:102840002A6A13432B6200F04DFA022706002B6A16
:102850003B423FD0009B012B00D0F7E6EB69364AA4
:102860001340EB61F2E633683B43336000F03AFA21
:10287000019033683B42E0D100F034FA019BC01A6A
:102880006428F6D930E70122002B14D12B6A0227E5
:1028900093432B622B6A033293432B6200F022FA9C
:1028A00006002B6A3B42D5D000F01CFA234B801B5C
:1028B0009842F6D918E7052B05D1296A013B0B434D
:1028C0002B622B6ABDE72B6A934304222B622B6A8F
:1028D0009343B7E700F006FA184B801B9842B6D92D
:1028E00002E700F0FFF9801B022800D8C1E6FBE6F2
:1028F000053203D16A6B9A436A63BEE66A6B0227AC
:10290000134301226B636B6B93436B6300F0EAF933
:1029100006006B6B3B4200D1B6E600F0E3F9801B8A
:102920000228F6D9E0E6C04600100240FFFFFEFF95
:10293000FFFFFBFF00700040FFFFFFEF8813000068
:102940000C22254D6B681340082B00D1B5E62B688F
:10295000224A13402B6002292FD100F0C3F98027AF
:102960000600BF042B683B4221D10F22EB6A802670
:102970009343E26AB6041343EB62616AA36A6A682E
:102980000B4317490A4013436B6080232A685B049A
:1029900013432B6000F0A6F904002B68334200D0EB
:1029A00076E600F09FF9001B0228F6D99CE600F0BD
:1029B00099F9801B0228D5D996E600F093F9802674
:1029C0000400B6042B68334200D161E600F08AF9B6
:1029D000001B0228F6D987E600100240FFFFFFFE29
:1029E000FFFFC2FF30B589B010221249684604AD1E
:1029F00000F046FE102228000F4900F041FE0C2294
:102A00000E4843681A40082A11D10F216C469A0CCF
:102A10000A40A45CC26ADB0307D50A40A95C0848E7
:102A2000FDF786FB604309B030BD0648FAE704486D
:102A3000F9E7C046A8370008B9370008001002407F
:102A400000127A0000093D00F7B50122444D040050
:102A50002B680F0013408B421DD32268930724D4A8
:102A6000D2072AD401232A681A40BA4268D82368B8
:102A70003C4D5B0700D56BE0FFF7B4FF6B683A4A4B
:102A80001B061B0FD35C3949D8400860002000F0BA
:102A9000FFF8002008E02B6893430B432B602B6862
:102AA00013408B42D9D00120FEBDF0202D494B6848
:102AB0008343A06803434B60D2E72A4E62683368C1
:102AC000012A1AD19B03EED5032173688B4313436C
:102AD000736000F007F963680190012B15D10C2297
:102AE00073681340042BBDD000F0FCF8019BC01AA2
:102AF0001F4B9842F3D90320D6E7022A02D19B014B
:102B0000E2D4D0E79B07DFD4CDE7022B12D00C2212
:102B100073681342A6D000F0E5F8019BC01A144B6D
:102B20009842F4D9E7E700F0DDF8019BC01A104B9A
:102B30009842E0D80C2273681340082BF3D191E738
:102B40002A689A432A602A681A4200D18FE7AAE7C6
:102B50006B68084A1340E26813436B608CE7C04619
:102B60000020024000100240CA3700080400002084
:102B700088130000FFF8FFFF014B18687047C0463C
:102B800004000020F0B50368050085B0DB032BD5F9
:102B900080220021384C5205E3690091134208D18C
:102BA000E3691343E361E36913400393039B012348
:102BB00000938027314E7F0033683B4222D0216A48
:102BC000C022080092006B682D4E104011422BD19C
:102BD000236A6A68334013432362009B012B03D1AD
:102BE000E369284A1340E3612A68D30706D5032026
:102BF00021490B6B8343A86803430B63920633D4CC
:102C000000200FE033683B43336000F06BF8019025
:102C100033683B42D3D100F065F8019BC01A6428A9
:102C2000F6D9032005B0F0BD13408342D0D08022F6
:102C3000236A206A1900520202432262226A124861
:102C40003140024022622162DB07C1D500F04AF820
:102C500007000222236A1342BAD100F043F80B4B5B
:102C6000C01B9842F5D9DCE71021034A136B8B4354
:102C7000E9680B431363C3E7001002400070004093
:102C8000FFFCFFFFFFFFFFEFFFFFFEFF88130000C9
:102C900010B50400FFF770FFFA218900FDF748FA2C
:102CA00000F0DEF9012000222100404200F0A6F9E8
:102CB000002010BD1023064A10B5116800200B43F8
:102CC0001360FFF7E5FFFEF7E9FC002010BDC046EA
:102CD00000200240024A1368013313607047C04667
:102CE00024020020014B18687047C04624020020CF
:102CF0000023F0B587B00A681400DC4001D107B0AA
:102D0000F0BD012614009E4034400294324200D1AE
:102D100092E04A6815000192102295430395022D16
:102D20000FD107240F251C40A400A540DA0892000B
:102D30008218176AAF43BC460F69A7406446274311
:102D4000176203225C00A240D543AC460325076806
:102D50009743019A2A40A240039D3A43013D0260F5
:102D6000012D0DD8624685681540CA68A2402A43E5
:102D70008260019A456812099A40B5432A4342602D
:102D80006246C56815408A68A24080242A43C26012
:102D9000019A640522424FD00125284A9027946960
:102DA000FF052C43946192699C082A400592059A7C
:102DB000234AA400A4180F2202351D40AD00AA40EA
:102DC000A66896430022B8420CD01E4F0132B8428A
:102DD00008D01D4F0132B84204D01C4F0332B84214
:102DE00000D1023AAA403243A260194A029C1668F6
:102DF000029D019FE4433543FF0301D43500254084
:102E000015605668029D019F3543BF0301D435000C
:102E1000254055609668029D019F3543FF0201D40D
:102E2000350025409560D568029E019F2E43BF0264
:102E300001D425402E00D66001335CE7001002402B
:102E4000000001400004004800080048000C004851
:102E50000004014000690840431E9841C0B2704719
:102E6000002A01D0816170478162FCE7044B10B5F4
:102E70005A69104202D05861FEF738F910BDC046B9
:102E80000004014070B504000120002C28D002236A
:102E9000A51CEB772068134B0268A1681A40636891
:102EA0000B43E1680B4321690B4361690B43A16943
:102EB0000B43E1690B43134303600B4B1421C01810
:102EC000FDF736F9094B80002064E36300200123FD
:102ED000A062E06220636063A063E418EB77E077B0
:102EE00070BDC0460FC0FFFFF8FFFDBF00000240ED
:102EF000F7B5441C0193E57F012D33D00125871CD4
:102F0000E577FD7F0026AC466346EDB2012B28D164
:102F10000224FC77046886632668076CAE43BD40D4
:102F20002660019BC66B756063604368102B0ED1F1
:102F3000A260E160C36A2268002B0BD00E2313430A
:102F4000236001230020226813432360FEBDA1609B
:102F5000E260EFE70A2313430422236023689343CC
:102F6000EEE7E6770220F1E7F8B504273E00016CB2
:102F7000C26B8E40156803681C6835420DD03C4218
:102F80000BD01968890602D41968B9431960C36A5D
:102F90005660002B19D0984717E002273E008E405C
:102FA000354213D03C4211D01968890606D40A2450
:102FB0001968A14319600121C319D977566000220D
:102FC000431CDA77836A9342E5D1F8BD08263700BF
:102FD0008F403D42F9D03442F7D00E251C68AC43F7
:102FE0001C6001231C008C405460821C8363D377D7
:102FF0000022C318DA77036BE5E7000010B5FF2461
:10300000032322000340DB009A4089012140D24380
:10301000994000280BDA0F230340083B09489B081E
:103020009B001B18D86902400A43DA6110BD064BA9
:1030300080088000C018C0239B00C45822400A4367
:10304000C250F3E700ED00E000E100E01F2318406C
:103050001E3B8340014A13607047C04600E100E018
:103060008022431E5204012093420DD2C021074A00
:1030700007485360036A09061B021B0A0B430362DD
:1030800000200723906013607047C04610E000E006
:1030900000ED00E00121114B11481A680A431A6043
:1030A0005A6802405A601A680E4802401A601A684C
:1030B0000D4802401A605A680C4802400F205A60BE
:1030C000DA6A8243DA621A6B094802401A635A6B61
:1030D0008A435A6300229A607047C046001002403B
:1030E0000CB8FF08FFFFF6FEFFFFFBFFFFFFC0FF6E
:1030F000ECFEFFFFF0B50125022387B01E4C05AFA3
:103100006D42029501930F225B1965212000009703
:10311000FEF77EFF802313267A785B426E441343CA
:103120003370029502352B00102264212000019596
:103130000096FEF7B7FE04233A78642113433370F8
:1031400001235B4202930F222B0020000195009681
:10315000FEF7A8FE7C233A785B42134333700123C9
:103160005B4202930F222B00642120000195009600
:10317000FEF798FE07B0F0BD18010020012330B51E
:103180005B4287B004AD029308330400002265213E
:1031900001932148063B0095FEF73AFF06222B7863
:1031A0005242190951435B1823706B781909514336
:1031B0005B18022163706956AB78002920DA7F2101
:1031C0000B4019094A4302219B18DBB2E370062326
:1031D000A170EA785B4211095943521822712A7989
:1031E00011095943521862716A79110959435218E9
:1031F000A271AA7911094B43D218E27107B030BD10
:103200001F220520990613401A09524282439B1837
:10321000C90FDBB2DAE7C04618010020F0B505009F
:1032200089B0FFF767FF2C780A212000FCF780FFA8
:103230000626704306AF24183C706C780A212000E3
:10324000FCF776FF704324187C70EC780A2120008C
:10325000FCF76EFF70432B790A21241818000593A0
:10326000FCF766FF7043059B0A211818F8706B790C
:10327000E4B218000593FCF75BFF7043059B0A213D
:1032800018183871AB7918000593FCF751FF70439B
:10329000059B0A2118187871EB7918000593FCF743
:1032A00047FF4643059B9E19BE71AB78022B10D198
:1032B0007E331C4301235B42BC70029308330193AD
:1032C000002264210097063B0448FEF7EBFD09B09D
:1032D000F0BD5B011C43E4B2ECE7C04618010020DE
:1032E000F0B50127022687B0FFF704FF0F4D05ACAC
:1032F0007F42012310226521280002970196009445
:10330000FEF786FE102221232178280091430B43EB
:1033100023700F2361780B436370642101230297AC
:1033200001960094FEF7BEFD07B0F0BD1801002025
:10333000F0B50127022689B00590FFF7DBFE114D9D
:1033400007AC7F42012310226521280002970196D5
:103350000094FEF75DFE102221232178280091437E
:103360000B430F21237063788B43059919436170D8
:1033700001236421029701960094FEF793FD09B0A2
:10338000F0BDC046180100207FB504000D001600F6
:1033900045280DD8FFF7AEFE012322005B420293C1
:1033A000642104482C32019600950233FEF77AFD21
:1033B0007FBDC046180100201FB5130045280BD85B
:1033C0000124020064420193009101236521034816
:1033D0002C320294FEF71CFE1FBDC04618010020CF
:1033E0000A23C046013B002BFBD101380028F7D14E
:1033F0007047000070B501230225044C2800A3612A
:10340000A561FFF7EDFFA56270BDC046001400483E
:10341000F8B50500082401270A4E0223B7623D4291
:103420000DD0B3610320013CFFF7DAFFE4B20320C3
:10343000B761FFF7D5FF6D08002CEDD1F8BDB36281
:10344000F0E7C0460014004870B50125054C052082
:10345000A562FFF7C5FFA5610220FFF7C1FFA562C6
:1034600070BDC0460014004870B501260225074C07
:103470000220A662FFF7B4FF2800A562FFF7B0FFA5
:103480002800A661FFF7ACFFA56170BD00140048DD
:1034900010B50400793CFFF7ADFFE0B2FFF7B8FFCD
:1034A000FFF7D2FFFFF7E0FF10BD10B50820FFF7D0
:1034B000EFFF10BDF0B587B00C0002930A21062380
:1034C000009001921F00013BDBB21A000120013A7B
:1034D000D2B2FF2A48D1A04202D9002BF2D11F005C
:1034E0000025244B04AE0393AF4203D80023029A75
:1034F0009A4205D00A212000FCF7A0FE039B5B5CEA
:10350000019AAA4232D0200033700A21FCF710FE43
:103510000135EDB204000136062DE5D10024FFF798
:1035200069FF4020FFF774FFFFF78EFFFFF79CFF56
:10353000FFF760FFC020FFF76BFFFFF785FF009DDF
:1035400004ABED18009B0020A34200D3287801347F
:10355000E4B2FFF75DFF013DFFF776FF062CF1D1E6
:10356000FFF782FF07B0F0BD4843B0E78022524228
:103570001343C8E72338000870B504000D00403C31
:10358000FFF738FF4420FFF743FFFFF75DFFFFF72A
:103590006BFFFFF72FFFE0B2FFF73AFFFFF754FF93
:1035A0002800FFF735FFFFF74FFFFFF75DFF70BD06
:1035B0002D39CBB210B50021482B01D80449C95C84
:1035C000531E9A41D2011143FFF7D6FF10BDC046EA
:1035D000DA3700080D4885460D480E490E4A00238B
:1035E00002E0D458C4500433C4188C42F9D30B4AB7
:1035F0000B4C002301E013600432A242FBD3FFF71F
:1036000049FD00F019F8FDF7EBFBFEE70010002084
:1036100000000020080000203838000808000020C2
:1036200028020020FEE703008218934200D1704771
:1036300019700133F9E7000070B500260C4C0D4DF0
:10364000641BA410A64209D1002600F023F80A4CFE
:103650000A4D641BA410A64205D170BDB300EB58FF
:1036600098470136EEE7B300EB5898470136F2E78A
:103670003038000830380008343800083038000886
:10368000002310B59A4200D110BDCC5CC454013364
:10369000F8E70000F8B5C046F8BC08BC9E46704785
:0C36A000F8B5C046F8BC08BC9E46704758
:1036AC001E04430468048D04B304DA0400052805E1
:1036BC004F0577059F05C705F005180641066A06F4
:1036CC009306BC06E5060D0736075F078707B007AC
:1036DC00D807000827084E0875089C08C208E80897
:1036EC000E09330957097B099F09C209E509070A25
:1036FC00290A4A0A6B0A8B0AAA0AC90AE70A050BA5
:10370C00220B3F0B5B0B770B920BAC0BC60BE00B3E
:10371C00F80B110C290C400C560C6D0C820C980CEF
:10372C00AC0CC00CD40CE70CFA0C0D0D1F0D300DAD
:10373C00410D520D620D720D810D900D9F0DAD0D51
:10374C00BB0DC90DD60DE30DF00DFC0D080E130EBF
:10375C001F0E2A0E350E3F0E490E530E5D0E670ED0
:10376C00700E790E820E8A0E920E9B0EA30EAA0E6E
:10377C00B20EB90EC00EC70ECE0ED50EDB0EE10E7C
:10378C00E70EED0EF30EF90EFF0E040F090F0E0FE0
:10379C00130F180F1D0F220F260F2B0F02030405FA
:1037AC00060708090A0B0C0D0E0F1010000102037E
:1037BC000405060708090A0B0C0D0E0F100000007B
:1037CC000000000000000102030406070809400085
:1037DC00003F065B4F666D7D077F6F0000000000A9
:1037EC000000777C395E79710076301E0038005409
:1037FC005C7300506D443E000000000000000000AF
:10380C000800777C585E79710074101E00380054E3
:10381C005C7300506D441C3F065B4F666D7D077FEB
:04382C006F00000029
:04383000E9000008A3
:04383400C1000008C7
:0838380019FF010000127A00E3
:04000005080035D5E5
:00000001FF
